{
  "_format": "hh-sol-artifact-1",
  "contractName": "MembershipPass1155",
  "sourceName": "contracts/MembershipPass1155.sol",
  "abi": [
    {
      "inputs": [
        {
          "internalType": "string",
          "name": "uri",
          "type": "string"
        },
        {
          "internalType": "address",
          "name": "admin",
          "type": "address"
        }
      ],
      "stateMutability": "nonpayable",
      "type": "constructor"
    },
    {
      "inputs": [],
      "name": "AccessControlBadConfirmation",
      "type": "error"
    },
    {
      "inputs": [
        {
          "internalType": "address",
          "name": "account",
          "type": "address"
        },
        {
          "internalType": "bytes32",
          "name": "neededRole",
          "type": "bytes32"
        }
      ],
      "name": "AccessControlUnauthorizedAccount",
      "type": "error"
    },
    {
      "inputs": [
        {
          "internalType": "uint256",
          "name": "expected",
          "type": "uint256"
        },
        {
          "internalType": "uint256",
          "name": "provided",
          "type": "uint256"
        }
      ],
      "name": "AmountMismatch",
      "type": "error"
    },
    {
      "inputs": [
        {
          "internalType": "uint256",
          "name": "courseId",
          "type": "uint256"
        }
      ],
      "name": "CourseAlreadyExists",
      "type": "error"
    },
    {
      "inputs": [
        {
          "internalType": "uint256",
          "name": "courseId",
          "type": "uint256"
        }
      ],
      "name": "CourseNotFound",
      "type": "error"
    },
    {
      "inputs": [
        {
          "internalType": "address",
          "name": "sender",
          "type": "address"
        },
        {
          "internalType": "uint256",
          "name": "balance",
          "type": "uint256"
        },
        {
          "internalType": "uint256",
          "name": "needed",
          "type": "uint256"
        },
        {
          "internalType": "uint256",
          "name": "tokenId",
          "type": "uint256"
        }
      ],
      "name": "ERC1155InsufficientBalance",
      "type": "error"
    },
    {
      "inputs": [
        {
          "internalType": "address",
          "name": "approver",
          "type": "address"
        }
      ],
      "name": "ERC1155InvalidApprover",
      "type": "error"
    },
    {
      "inputs": [
        {
          "internalType": "uint256",
          "name": "idsLength",
          "type": "uint256"
        },
        {
          "internalType": "uint256",
          "name": "valuesLength",
          "type": "uint256"
        }
      ],
      "name": "ERC1155InvalidArrayLength",
      "type": "error"
    },
    {
      "inputs": [
        {
          "internalType": "address",
          "name": "operator",
          "type": "address"
        }
      ],
      "name": "ERC1155InvalidOperator",
      "type": "error"
    },
    {
      "inputs": [
        {
          "internalType": "address",
          "name": "receiver",
          "type": "address"
        }
      ],
      "name": "ERC1155InvalidReceiver",
      "type": "error"
    },
    {
      "inputs": [
        {
          "internalType": "address",
          "name": "sender",
          "type": "address"
        }
      ],
      "name": "ERC1155InvalidSender",
      "type": "error"
    },
    {
      "inputs": [
        {
          "internalType": "address",
          "name": "operator",
          "type": "address"
        },
        {
          "internalType": "address",
          "name": "owner",
          "type": "address"
        }
      ],
      "name": "ERC1155MissingApprovalForAll",
      "type": "error"
    },
    {
      "inputs": [],
      "name": "EnforcedPause",
      "type": "error"
    },
    {
      "inputs": [],
      "name": "ExpectedPause",
      "type": "error"
    },
    {
      "inputs": [],
      "name": "InvalidDuration",
      "type": "error"
    },
    {
      "inputs": [],
      "name": "InvalidSplitter",
      "type": "error"
    },
    {
      "inputs": [
        {
          "internalType": "uint256",
          "name": "courseId",
          "type": "uint256"
        },
        {
          "internalType": "address",
          "name": "account",
          "type": "address"
        }
      ],
      "name": "NotCourseCreator",
      "type": "error"
    },
    {
      "inputs": [
        {
          "internalType": "uint256",
          "name": "courseId",
          "type": "uint256"
        },
        {
          "internalType": "address",
          "name": "account",
          "type": "address"
        },
        {
          "internalType": "uint64",
          "name": "expiredAt",
          "type": "uint64"
        }
      ],
      "name": "PassExpired",
      "type": "error"
    },
    {
      "inputs": [],
      "name": "ReentrancyGuardReentrantCall",
      "type": "error"
    },
    {
      "inputs": [
        {
          "internalType": "uint256",
          "name": "courseId",
          "type": "uint256"
        },
        {
          "internalType": "address",
          "name": "account",
          "type": "address"
        }
      ],
      "name": "RenewalNotAllowed",
      "type": "error"
    },
    {
      "inputs": [
        {
          "internalType": "uint256",
          "name": "courseId",
          "type": "uint256"
        },
        {
          "internalType": "address",
          "name": "account",
          "type": "address"
        },
        {
          "internalType": "uint64",
          "name": "availableAt",
          "type": "uint64"
        }
      ],
      "name": "TransferCooldownActive",
      "type": "error"
    },
    {
      "inputs": [
        {
          "internalType": "address",
          "name": "caller",
          "type": "address"
        }
      ],
      "name": "TransferRestricted",
      "type": "error"
    },
    {
      "anonymous": false,
      "inputs": [
        {
          "indexed": true,
          "internalType": "address",
          "name": "account",
          "type": "address"
        },
        {
          "indexed": true,
          "internalType": "address",
          "name": "operator",
          "type": "address"
        },
        {
          "indexed": false,
          "internalType": "bool",
          "name": "approved",
          "type": "bool"
        }
      ],
      "name": "ApprovalForAll",
      "type": "event"
    },
    {
      "anonymous": false,
      "inputs": [
        {
          "indexed": true,
          "internalType": "uint256",
          "name": "courseId",
          "type": "uint256"
        },
        {
          "indexed": false,
          "internalType": "uint64",
          "name": "duration",
          "type": "uint64"
        },
        {
          "indexed": false,
          "internalType": "uint64",
          "name": "transferCooldown",
          "type": "uint64"
        }
      ],
      "name": "CourseConfigUpdated",
      "type": "event"
    },
    {
      "anonymous": false,
      "inputs": [
        {
          "indexed": true,
          "internalType": "uint256",
          "name": "courseId",
          "type": "uint256"
        },
        {
          "indexed": false,
          "internalType": "uint256",
          "name": "priceWei",
          "type": "uint256"
        },
        {
          "indexed": true,
          "internalType": "address",
          "name": "splitter",
          "type": "address"
        },
        {
          "indexed": true,
          "internalType": "address",
          "name": "creator",
          "type": "address"
        },
        {
          "indexed": false,
          "internalType": "uint64",
          "name": "duration",
          "type": "uint64"
        },
        {
          "indexed": false,
          "internalType": "uint64",
          "name": "transferCooldown",
          "type": "uint64"
        }
      ],
      "name": "CourseCreated",
      "type": "event"
    },
    {
      "anonymous": false,
      "inputs": [
        {
          "indexed": true,
          "internalType": "uint256",
          "name": "courseId",
          "type": "uint256"
        },
        {
          "indexed": false,
          "internalType": "uint256",
          "name": "oldPrice",
          "type": "uint256"
        },
        {
          "indexed": false,
          "internalType": "uint256",
          "name": "newPrice",
          "type": "uint256"
        }
      ],
      "name": "CoursePriceUpdated",
      "type": "event"
    },
    {
      "anonymous": false,
      "inputs": [
        {
          "indexed": true,
          "internalType": "uint256",
          "name": "courseId",
          "type": "uint256"
        },
        {
          "indexed": false,
          "internalType": "address",
          "name": "oldSplitter",
          "type": "address"
        },
        {
          "indexed": false,
          "internalType": "address",
          "name": "newSplitter",
          "type": "address"
        }
      ],
      "name": "CourseSplitterUpdated",
      "type": "event"
    },
    {
      "anonymous": false,
      "inputs": [
        {
          "indexed": true,
          "internalType": "uint256",
          "name": "courseId",
          "type": "uint256"
        },
        {
          "indexed": true,
          "internalType": "address",
          "name": "buyer",
          "type": "address"
        },
        {
          "indexed": false,
          "internalType": "uint256",
          "name": "amountPaid",
          "type": "uint256"
        },
        {
          "indexed": false,
          "internalType": "uint64",
          "name": "expiresAt",
          "type": "uint64"
        }
      ],
      "name": "PassMinted",
      "type": "event"
    },
    {
      "anonymous": false,
      "inputs": [
        {
          "indexed": true,
          "internalType": "uint256",
          "name": "courseId",
          "type": "uint256"
        },
        {
          "indexed": true,
          "internalType": "address",
          "name": "account",
          "type": "address"
        },
        {
          "indexed": false,
          "internalType": "uint256",
          "name": "amountPaid",
          "type": "uint256"
        },
        {
          "indexed": false,
          "internalType": "uint64",
          "name": "previousExpiry",
          "type": "uint64"
        },
        {
          "indexed": false,
          "internalType": "uint64",
          "name": "newExpiry",
          "type": "uint64"
        }
      ],
      "name": "PassRenewed",
      "type": "event"
    },
    {
      "anonymous": false,
      "inputs": [
        {
          "indexed": true,
          "internalType": "uint256",
          "name": "courseId",
          "type": "uint256"
        },
        {
          "indexed": true,
          "internalType": "address",
          "name": "account",
          "type": "address"
        },
        {
          "indexed": false,
          "internalType": "uint64",
          "name": "expiresAt",
          "type": "uint64"
        },
        {
          "indexed": false,
          "internalType": "uint64",
          "name": "cooldownEndsAt",
          "type": "uint64"
        }
      ],
      "name": "PassStateUpdated",
      "type": "event"
    },
    {
      "anonymous": false,
      "inputs": [
        {
          "indexed": false,
          "internalType": "address",
          "name": "account",
          "type": "address"
        }
      ],
      "name": "Paused",
      "type": "event"
    },
    {
      "anonymous": false,
      "inputs": [
        {
          "indexed": true,
          "internalType": "bytes32",
          "name": "role",
          "type": "bytes32"
        },
        {
          "indexed": true,
          "internalType": "bytes32",
          "name": "previousAdminRole",
          "type": "bytes32"
        },
        {
          "indexed": true,
          "internalType": "bytes32",
          "name": "newAdminRole",
          "type": "bytes32"
        }
      ],
      "name": "RoleAdminChanged",
      "type": "event"
    },
    {
      "anonymous": false,
      "inputs": [
        {
          "indexed": true,
          "internalType": "bytes32",
          "name": "role",
          "type": "bytes32"
        },
        {
          "indexed": true,
          "internalType": "address",
          "name": "account",
          "type": "address"
        },
        {
          "indexed": true,
          "internalType": "address",
          "name": "sender",
          "type": "address"
        }
      ],
      "name": "RoleGranted",
      "type": "event"
    },
    {
      "anonymous": false,
      "inputs": [
        {
          "indexed": true,
          "internalType": "bytes32",
          "name": "role",
          "type": "bytes32"
        },
        {
          "indexed": true,
          "internalType": "address",
          "name": "account",
          "type": "address"
        },
        {
          "indexed": true,
          "internalType": "address",
          "name": "sender",
          "type": "address"
        }
      ],
      "name": "RoleRevoked",
      "type": "event"
    },
    {
      "anonymous": false,
      "inputs": [
        {
          "indexed": true,
          "internalType": "address",
          "name": "operator",
          "type": "address"
        },
        {
          "indexed": true,
          "internalType": "address",
          "name": "from",
          "type": "address"
        },
        {
          "indexed": true,
          "internalType": "address",
          "name": "to",
          "type": "address"
        },
        {
          "indexed": false,
          "internalType": "uint256[]",
          "name": "ids",
          "type": "uint256[]"
        },
        {
          "indexed": false,
          "internalType": "uint256[]",
          "name": "values",
          "type": "uint256[]"
        }
      ],
      "name": "TransferBatch",
      "type": "event"
    },
    {
      "anonymous": false,
      "inputs": [
        {
          "indexed": true,
          "internalType": "address",
          "name": "operator",
          "type": "address"
        },
        {
          "indexed": true,
          "internalType": "address",
          "name": "from",
          "type": "address"
        },
        {
          "indexed": true,
          "internalType": "address",
          "name": "to",
          "type": "address"
        },
        {
          "indexed": false,
          "internalType": "uint256",
          "name": "id",
          "type": "uint256"
        },
        {
          "indexed": false,
          "internalType": "uint256",
          "name": "value",
          "type": "uint256"
        }
      ],
      "name": "TransferSingle",
      "type": "event"
    },
    {
      "anonymous": false,
      "inputs": [
        {
          "indexed": false,
          "internalType": "string",
          "name": "value",
          "type": "string"
        },
        {
          "indexed": true,
          "internalType": "uint256",
          "name": "id",
          "type": "uint256"
        }
      ],
      "name": "URI",
      "type": "event"
    },
    {
      "anonymous": false,
      "inputs": [
        {
          "indexed": false,
          "internalType": "address",
          "name": "account",
          "type": "address"
        }
      ],
      "name": "Unpaused",
      "type": "event"
    },
    {
      "inputs": [],
      "name": "ADMIN_ROLE",
      "outputs": [
        {
          "internalType": "bytes32",
          "name": "",
          "type": "bytes32"
        }
      ],
      "stateMutability": "view",
      "type": "function"
    },
    {
      "inputs": [],
      "name": "CREATOR_ROLE",
      "outputs": [
        {
          "internalType": "bytes32",
          "name": "",
          "type": "bytes32"
        }
      ],
      "stateMutability": "view",
      "type": "function"
    },
    {
      "inputs": [],
      "name": "DEFAULT_ADMIN_ROLE",
      "outputs": [
        {
          "internalType": "bytes32",
          "name": "",
          "type": "bytes32"
        }
      ],
      "stateMutability": "view",
      "type": "function"
    },
    {
      "inputs": [],
      "name": "MARKETPLACE_ROLE",
      "outputs": [
        {
          "internalType": "bytes32",
          "name": "",
          "type": "bytes32"
        }
      ],
      "stateMutability": "view",
      "type": "function"
    },
    {
      "inputs": [],
      "name": "REGISTRAR_ROLE",
      "outputs": [
        {
          "internalType": "bytes32",
          "name": "",
          "type": "bytes32"
        }
      ],
      "stateMutability": "view",
      "type": "function"
    },
    {
      "inputs": [
        {
          "internalType": "address",
          "name": "account",
          "type": "address"
        },
        {
          "internalType": "uint256",
          "name": "id",
          "type": "uint256"
        }
      ],
      "name": "balanceOf",
      "outputs": [
        {
          "internalType": "uint256",
          "name": "",
          "type": "uint256"
        }
      ],
      "stateMutability": "view",
      "type": "function"
    },
    {
      "inputs": [
        {
          "internalType": "address[]",
          "name": "accounts",
          "type": "address[]"
        },
        {
          "internalType": "uint256[]",
          "name": "ids",
          "type": "uint256[]"
        }
      ],
      "name": "balanceOfBatch",
      "outputs": [
        {
          "internalType": "uint256[]",
          "name": "",
          "type": "uint256[]"
        }
      ],
      "stateMutability": "view",
      "type": "function"
    },
    {
      "inputs": [
        {
          "internalType": "uint256",
          "name": "courseId",
          "type": "uint256"
        },
        {
          "internalType": "address",
          "name": "account",
          "type": "address"
        }
      ],
      "name": "canTransfer",
      "outputs": [
        {
          "internalType": "bool",
          "name": "eligible",
          "type": "bool"
        },
        {
          "internalType": "uint64",
          "name": "availableAt",
          "type": "uint64"
        },
        {
          "internalType": "uint64",
          "name": "expiresAt",
          "type": "uint64"
        }
      ],
      "stateMutability": "view",
      "type": "function"
    },
    {
      "inputs": [
        {
          "internalType": "uint256",
          "name": "courseId",
          "type": "uint256"
        },
        {
          "internalType": "uint256",
          "name": "priceWei",
          "type": "uint256"
        },
        {
          "internalType": "address",
          "name": "splitter",
          "type": "address"
        },
        {
          "internalType": "address",
          "name": "creator",
          "type": "address"
        },
        {
          "internalType": "uint64",
          "name": "duration",
          "type": "uint64"
        },
        {
          "internalType": "uint64",
          "name": "transferCooldown",
          "type": "uint64"
        }
      ],
      "name": "createCourse",
      "outputs": [],
      "stateMutability": "nonpayable",
      "type": "function"
    },
    {
      "inputs": [
        {
          "internalType": "uint256",
          "name": "id",
          "type": "uint256"
        }
      ],
      "name": "exists",
      "outputs": [
        {
          "internalType": "bool",
          "name": "",
          "type": "bool"
        }
      ],
      "stateMutability": "view",
      "type": "function"
    },
    {
      "inputs": [
        {
          "internalType": "uint256",
          "name": "courseId",
          "type": "uint256"
        },
        {
          "internalType": "address",
          "name": "account",
          "type": "address"
        },
        {
          "internalType": "uint256",
          "name": "amountPaid",
          "type": "uint256"
        },
        {
          "internalType": "uint64",
          "name": "additionalDuration",
          "type": "uint64"
        }
      ],
      "name": "extendPass",
      "outputs": [],
      "stateMutability": "nonpayable",
      "type": "function"
    },
    {
      "inputs": [
        {
          "internalType": "uint256",
          "name": "courseId",
          "type": "uint256"
        }
      ],
      "name": "getCourse",
      "outputs": [
        {
          "components": [
            {
              "internalType": "uint256",
              "name": "priceWei",
              "type": "uint256"
            },
            {
              "internalType": "address",
              "name": "splitter",
              "type": "address"
            },
            {
              "internalType": "address",
              "name": "creator",
              "type": "address"
            },
            {
              "internalType": "uint64",
              "name": "duration",
              "type": "uint64"
            },
            {
              "internalType": "uint64",
              "name": "transferCooldown",
              "type": "uint64"
            }
          ],
          "internalType": "struct MembershipPass1155.Course",
          "name": "",
          "type": "tuple"
        }
      ],
      "stateMutability": "view",
      "type": "function"
    },
    {
      "inputs": [
        {
          "internalType": "uint256",
          "name": "courseId",
          "type": "uint256"
        },
        {
          "internalType": "address",
          "name": "account",
          "type": "address"
        }
      ],
      "name": "getPassState",
      "outputs": [
        {
          "components": [
            {
              "internalType": "uint64",
              "name": "expiresAt",
              "type": "uint64"
            },
            {
              "internalType": "uint64",
              "name": "cooldownEndsAt",
              "type": "uint64"
            }
          ],
          "internalType": "struct MembershipPass1155.PassState",
          "name": "",
          "type": "tuple"
        }
      ],
      "stateMutability": "view",
      "type": "function"
    },
    {
      "inputs": [
        {
          "internalType": "bytes32",
          "name": "role",
          "type": "bytes32"
        }
      ],
      "name": "getRoleAdmin",
      "outputs": [
        {
          "internalType": "bytes32",
          "name": "",
          "type": "bytes32"
        }
      ],
      "stateMutability": "view",
      "type": "function"
    },
    {
      "inputs": [
        {
          "internalType": "bytes32",
          "name": "role",
          "type": "bytes32"
        },
        {
          "internalType": "address",
          "name": "account",
          "type": "address"
        }
      ],
      "name": "grantRole",
      "outputs": [],
      "stateMutability": "nonpayable",
      "type": "function"
    },
    {
      "inputs": [
        {
          "internalType": "address",
          "name": "account",
          "type": "address"
        },
        {
          "internalType": "uint256",
          "name": "courseId",
          "type": "uint256"
        }
      ],
      "name": "hasPass",
      "outputs": [
        {
          "internalType": "bool",
          "name": "",
          "type": "bool"
        }
      ],
      "stateMutability": "view",
      "type": "function"
    },
    {
      "inputs": [
        {
          "internalType": "bytes32",
          "name": "role",
          "type": "bytes32"
        },
        {
          "internalType": "address",
          "name": "account",
          "type": "address"
        }
      ],
      "name": "hasRole",
      "outputs": [
        {
          "internalType": "bool",
          "name": "",
          "type": "bool"
        }
      ],
      "stateMutability": "view",
      "type": "function"
    },
    {
      "inputs": [
        {
          "internalType": "address",
          "name": "account",
          "type": "address"
        },
        {
          "internalType": "address",
          "name": "operator",
          "type": "address"
        }
      ],
      "name": "isApprovedForAll",
      "outputs": [
        {
          "internalType": "bool",
          "name": "",
          "type": "bool"
        }
      ],
      "stateMutability": "view",
      "type": "function"
    },
    {
      "inputs": [
        {
          "internalType": "uint256",
          "name": "courseId",
          "type": "uint256"
        },
        {
          "internalType": "address",
          "name": "account",
          "type": "address"
        }
      ],
      "name": "isPassActive",
      "outputs": [
        {
          "internalType": "bool",
          "name": "",
          "type": "bool"
        }
      ],
      "stateMutability": "view",
      "type": "function"
    },
    {
      "inputs": [
        {
          "internalType": "address",
          "name": "to",
          "type": "address"
        },
        {
          "internalType": "uint256",
          "name": "courseId",
          "type": "uint256"
        },
        {
          "internalType": "uint256",
          "name": "amountPaid",
          "type": "uint256"
        }
      ],
      "name": "marketplaceMint",
      "outputs": [],
      "stateMutability": "nonpayable",
      "type": "function"
    },
    {
      "inputs": [],
      "name": "pause",
      "outputs": [],
      "stateMutability": "nonpayable",
      "type": "function"
    },
    {
      "inputs": [],
      "name": "paused",
      "outputs": [
        {
          "internalType": "bool",
          "name": "",
          "type": "bool"
        }
      ],
      "stateMutability": "view",
      "type": "function"
    },
    {
      "inputs": [
        {
          "internalType": "bytes32",
          "name": "role",
          "type": "bytes32"
        },
        {
          "internalType": "address",
          "name": "callerConfirmation",
          "type": "address"
        }
      ],
      "name": "renounceRole",
      "outputs": [],
      "stateMutability": "nonpayable",
      "type": "function"
    },
    {
      "inputs": [
        {
          "internalType": "bytes32",
          "name": "role",
          "type": "bytes32"
        },
        {
          "internalType": "address",
          "name": "account",
          "type": "address"
        }
      ],
      "name": "revokeRole",
      "outputs": [],
      "stateMutability": "nonpayable",
      "type": "function"
    },
    {
      "inputs": [
        {
          "internalType": "address",
          "name": "from",
          "type": "address"
        },
        {
          "internalType": "address",
          "name": "to",
          "type": "address"
        },
        {
          "internalType": "uint256[]",
          "name": "ids",
          "type": "uint256[]"
        },
        {
          "internalType": "uint256[]",
          "name": "values",
          "type": "uint256[]"
        },
        {
          "internalType": "bytes",
          "name": "data",
          "type": "bytes"
        }
      ],
      "name": "safeBatchTransferFrom",
      "outputs": [],
      "stateMutability": "nonpayable",
      "type": "function"
    },
    {
      "inputs": [
        {
          "internalType": "address",
          "name": "from",
          "type": "address"
        },
        {
          "internalType": "address",
          "name": "to",
          "type": "address"
        },
        {
          "internalType": "uint256",
          "name": "id",
          "type": "uint256"
        },
        {
          "internalType": "uint256",
          "name": "value",
          "type": "uint256"
        },
        {
          "internalType": "bytes",
          "name": "data",
          "type": "bytes"
        }
      ],
      "name": "safeTransferFrom",
      "outputs": [],
      "stateMutability": "nonpayable",
      "type": "function"
    },
    {
      "inputs": [
        {
          "internalType": "address",
          "name": "operator",
          "type": "address"
        },
        {
          "internalType": "bool",
          "name": "approved",
          "type": "bool"
        }
      ],
      "name": "setApprovalForAll",
      "outputs": [],
      "stateMutability": "nonpayable",
      "type": "function"
    },
    {
      "inputs": [
        {
          "internalType": "uint256",
          "name": "courseId",
          "type": "uint256"
        },
        {
          "internalType": "uint64",
          "name": "duration",
          "type": "uint64"
        },
        {
          "internalType": "uint64",
          "name": "transferCooldown",
          "type": "uint64"
        }
      ],
      "name": "setCourseConfig",
      "outputs": [],
      "stateMutability": "nonpayable",
      "type": "function"
    },
    {
      "inputs": [
        {
          "internalType": "uint256",
          "name": "courseId",
          "type": "uint256"
        },
        {
          "internalType": "uint256",
          "name": "newPriceWei",
          "type": "uint256"
        }
      ],
      "name": "setPrice",
      "outputs": [],
      "stateMutability": "nonpayable",
      "type": "function"
    },
    {
      "inputs": [
        {
          "internalType": "uint256",
          "name": "courseId",
          "type": "uint256"
        },
        {
          "internalType": "address",
          "name": "newSplitter",
          "type": "address"
        }
      ],
      "name": "setSplitter",
      "outputs": [],
      "stateMutability": "nonpayable",
      "type": "function"
    },
    {
      "inputs": [
        {
          "internalType": "string",
          "name": "newURI",
          "type": "string"
        }
      ],
      "name": "setURI",
      "outputs": [],
      "stateMutability": "nonpayable",
      "type": "function"
    },
    {
      "inputs": [
        {
          "internalType": "bytes4",
          "name": "interfaceId",
          "type": "bytes4"
        }
      ],
      "name": "supportsInterface",
      "outputs": [
        {
          "internalType": "bool",
          "name": "",
          "type": "bool"
        }
      ],
      "stateMutability": "view",
      "type": "function"
    },
    {
      "inputs": [],
      "name": "totalSupply",
      "outputs": [
        {
          "internalType": "uint256",
          "name": "",
          "type": "uint256"
        }
      ],
      "stateMutability": "view",
      "type": "function"
    },
    {
      "inputs": [
        {
          "internalType": "uint256",
          "name": "id",
          "type": "uint256"
        }
      ],
      "name": "totalSupply",
      "outputs": [
        {
          "internalType": "uint256",
          "name": "",
          "type": "uint256"
        }
      ],
      "stateMutability": "view",
      "type": "function"
    },
    {
      "inputs": [],
      "name": "unpause",
      "outputs": [],
      "stateMutability": "nonpayable",
      "type": "function"
    },
    {
      "inputs": [
        {
          "internalType": "uint256",
          "name": "",
          "type": "uint256"
        }
      ],
      "name": "uri",
      "outputs": [
        {
          "internalType": "string",
          "name": "",
          "type": "string"
        }
      ],
      "stateMutability": "view",
      "type": "function"
    }
  ],
  "bytecode": "0x608060405234801561001057600080fd5b5060405161326c38038061326c83398101604081905261002f9161016f565b816100398161007d565b50600160075561004a60008261008d565b506100757fa49807205ce4d355092ef5a8a18f56e8913cf4a201fbe287825b095693c217758261008d565b505050610393565b600261008982826102d4565b5050565b60008281526005602090815260408083206001600160a01b038516845290915281205460ff166101335760008381526005602090815260408083206001600160a01b03861684529091529020805460ff191660011790556100eb3390565b6001600160a01b0316826001600160a01b0316847f2f8788117e7eff1d82e926ec794901d17c78024a50270940304540a733656f0d60405160405180910390a4506001610137565b5060005b92915050565b634e487b7160e01b600052604160045260246000fd5b80516001600160a01b038116811461016a57600080fd5b919050565b6000806040838503121561018257600080fd5b82516001600160401b038082111561019957600080fd5b818501915085601f8301126101ad57600080fd5b8151818111156101bf576101bf61013d565b604051601f8201601f19908116603f011681019083821181831017156101e7576101e761013d565b8160405282815260209350888484870101111561020357600080fd5b600091505b828210156102255784820184015181830185015290830190610208565b600084848301015280965050505061023e818601610153565b925050509250929050565b600181811c9082168061025d57607f821691505b60208210810361027d57634e487b7160e01b600052602260045260246000fd5b50919050565b601f8211156102cf576000816000526020600020601f850160051c810160208610156102ac5750805b601f850160051c820191505b818110156102cb578281556001016102b8565b5050505b505050565b81516001600160401b038111156102ed576102ed61013d565b610301816102fb8454610249565b84610283565b602080601f831160018114610336576000841561031e5750858301515b600019600386901b1c1916600185901b1785556102cb565b600085815260208120601f198616915b8281101561036557888601518255948401946001909101908401610346565b50858210156103835787850151600019600388901b60f8161c191681555b5050505050600190811b01905550565b612eca806103a26000396000f3fe608060405234801561001057600080fd5b506004361061021b5760003560e01c80635c975abb11610125578063a22cb465116100ad578063d547741f1161007c578063d547741f146105ba578063e985e9c5146105cd578063f242432a146105e0578063f68e9553146105f3578063f7d975771461061a57600080fd5b8063a22cb4651461055f578063bd85b03914610572578063c20728f814610592578063c3439f3f146105a557600080fd5b80638aeda25a116100f45780638aeda25a146104f75780638ec77e761461051e57806391d14854146105315780639e9f0e9314610544578063a217fddf1461055757600080fd5b80635c975abb146104bc57806375b238fc146104c757806384429c53146104dc5780638456cb59146104ef57600080fd5b80632eb2c2d6116101a85780634e1273f4116101775780634e1273f4146103c45780634f558e79146103e45780634f7efa9c146104065780635330040f146104195780635b64bd301461042c57600080fd5b80632eb2c2d6146103835780632f2ff15d1461039657806336568abe146103a95780633f4ba83a146103bc57600080fd5b80630e2f78ba116101ef5780630e2f78ba146102eb5780630e89341c1461032557806318160ddd146103455780631e8175621461034d578063248a9ca31461036057600080fd5b8062fdd58e1461022057806301ffc9a71461024657806302fe5305146102695780630b91e28d1461027e575b600080fd5b61023361022e36600461257f565b61062d565b6040519081526020015b60405180910390f35b6102596102543660046125bf565b610655565b604051901515815260200161023d565b61027c610277366004612679565b610660565b005b61029161028c3660046126c9565b610685565b60408051825181526020808401516001600160a01b03908116918301919091528383015116918101919091526060808301516001600160401b0390811691830191909152608092830151169181019190915260a00161023d565b6102fe6102f93660046126e2565b6106b9565b6040805193151584526001600160401b03928316602085015291169082015260600161023d565b6103386103333660046126c9565b61078b565b60405161023d9190612754565b600454610233565b61027c61035b36600461277e565b61081f565b61023361036e3660046126c9565b60009081526005602052604090206001015490565b61027c610391366004612876565b610a59565b61027c6103a43660046126e2565b610ac0565b61027c6103b73660046126e2565b610ae5565b61027c610b1d565b6103d76103d236600461291f565b610b40565b60405161023d9190612a1a565b6102596103f23660046126c9565b600090815260036020526040902054151590565b61027c610414366004612a2d565b610c0c565b6102596104273660046126e2565b610d01565b61049561043a3660046126e2565b60408051808201825260008082526020918201819052938452600981528184206001600160a01b03939093168452918252918290208251808401909352546001600160401b038082168452600160401b909104169082015290565b6040805182516001600160401b03908116825260209384015116928101929092520161023d565b60065460ff16610259565b610233600080516020612e7583398151915281565b61027c6104ea3660046126e2565b610d8b565b61027c610e8e565b6102337f828634d95e775031b9ff576b159a8509d3053581a8c9c4d7d86899e0afcd882f81565b61025961052c36600461257f565b610eae565b61025961053f3660046126e2565b610ec1565b61027c610552366004612a60565b610eec565b610233600081565b61027c61056d366004612ac6565b611196565b6102336105803660046126c9565b60009081526003602052604090205490565b61027c6105a0366004612b02565b6111a1565b610233600080516020612e5583398151915281565b61027c6105c83660046126e2565b6112c4565b6102596105db366004612b3e565b6112e9565b61027c6105ee366004612b68565b611317565b6102337fedcc084d3dcd65a1f7f23c65c46722faca6953d28e43150a467cf43e5c30923881565b61027c610628366004612bcc565b611376565b6000818152602081815260408083206001600160a01b03861684529091529020545b92915050565b600061064f82611427565b600080516020612e758339815191526106788161144c565b61068182611456565b5050565b6040805160a08101825260008082526020820181905291810182905260608101829052608081019190915261064f82611462565b60008281526009602090815260408083206001600160a01b038516845282528083208151808301909252546001600160401b03808216808452600160401b9092041692820183905290838061070e878961062d565b119050600082600001516001600160401b03166000148061073c57504283600001516001600160401b031610155b9050600083602001516001600160401b03166000148061076957504284602001516001600160401b031611155b90508280156107755750815b801561077e5750805b9650505050509250925092565b60606002805461079a90612bee565b80601f01602080910402602001604051908101604052809291908181526020018280546107c690612bee565b80156108135780601f106107e857610100808354040283529160200191610813565b820191906000526020600020905b8154815290600101906020018083116107f657829003601f168201915b50505050509050919050565b610827611514565b61082f61153e565b600080516020612e558339815191526108478161144c565b816001600160401b031660000361087157604051637616640160e01b815260040160405180910390fd5b600061087c86611462565b80519091501580159061088f5750805184105b156108bf57805160405163ce6b173b60e01b81526004810191909152602481018590526044015b60405180910390fd5b6108c9858761062d565b6000036108fb5760405163ad34f07b60e01b8152600481018790526001600160a01b03861660248201526044016108b6565b60008681526009602090815260408083206001600160a01b03891684529091528120805490916001600160401b039091169042821161093a574261093c565b815b9050600061094a8288611564565b845467ffffffffffffffff19166001600160401b038216178555905061096f85611596565b84546fffffffffffffffff00000000000000001916600160401b6001600160401b0392831602178555604080518a81528583166020820152918316908201526001600160a01b038a16908b907f51573726fe18c158eeed2386d035f788e81c93715351219f73a5493a293f8f449060600160405180910390a38354604080516001600160401b038085168252600160401b90930490921660208301526001600160a01b038b16918c917f6c9b5717d6d84a5cc938c626ff94c2e04f253f5b4f4534c2df896a1a8e2ffda5910160405180910390a3505050505050610a536001600755565b50505050565b336001600160a01b0386168114801590610a7a5750610a7886826112e9565b155b15610aab5760405163711bec9160e11b81526001600160a01b038083166004830152871660248201526044016108b6565b610ab886868686866115c3565b505050505050565b600082815260056020526040902060010154610adb8161144c565b610a53838361162a565b6001600160a01b0381163314610b0e5760405163334bd91960e11b815260040160405180910390fd5b610b1882826116be565b505050565b600080516020612e75833981519152610b358161144c565b610b3d61172b565b50565b60608151835114610b715781518351604051635b05999160e01b8152600481019290925260248201526044016108b6565b600083516001600160401b03811115610b8c57610b8c6125dc565b604051908082528060200260200182016040528015610bb5578160200160208202803683370190505b50905060005b8451811015610c0457602080820286010151610bdf9060208084028701015161062d565b828281518110610bf157610bf1612c28565b6020908102919091010152600101610bbb565b509392505050565b610c14611514565b610c1c61153e565b600080516020612e55833981519152610c348161144c565b6000610c3f84611462565b805190915015801590610c525750805183105b15610c7d57805160405163ce6b173b60e01b81526004810191909152602481018490526044016108b6565b6000610c888261177d565b9050610ca686866001604051806020016040528060008152506117aa565b604080518581526001600160401b03831660208201526001600160a01b0388169187917fbd1b09c41c4f6e036c7158ef71fed4b0a058cccfb14651698db7cbb1b88b2a07910160405180910390a3505050610b186001600755565b6000610d0d828461062d565b600003610d1c5750600061064f565b60008381526009602090815260408083206001600160a01b038616845282528083208151808301909252546001600160401b03808216808452600160401b90920416928201929092529103610d7557600191505061064f565b51426001600160401b0390911610159392505050565b610d9361153e565b600082815260086020526040902060018101546001600160a01b0316610dcf5760405163071a106f60e11b8152600481018490526024016108b6565b610dd98333611807565b610dff5760405163266b177160e01b8152600481018490523360248201526044016108b6565b6001600160a01b038216610e265760405163eed7778f60e01b815260040160405180910390fd5b6001810180546001600160a01b038481166001600160a01b0319831681179093556040805191909216808252602082019390935285917f36297e9bd2a333d7a91dd9a853faeca26ea2cdf6c265d17f963acf30b65935fd91015b60405180910390a250505050565b600080516020612e75833981519152610ea68161144c565b610b3d61184c565b6000610eba8284610d01565b9392505050565b60009182526005602090815260408084206001600160a01b0393909316845291905290205460ff1690565b610ef461153e565b7fedcc084d3dcd65a1f7f23c65c46722faca6953d28e43150a467cf43e5c309238610f1e8161144c565b6000878152600860205260409020600101546001600160a01b031615610f5a57604051636f7e2eeb60e01b8152600481018890526024016108b6565b6001600160a01b038516610f815760405163eed7778f60e01b815260040160405180910390fd5b6001600160401b038381161480610fa057506001600160401b03828116145b15610fbe57604051637616640160e01b815260040160405180910390fd5b6040518060a00160405280878152602001866001600160a01b03168152602001856001600160a01b03168152602001846001600160401b03168152602001836001600160401b0316815250600860008981526020019081526020016000206000820151816000015560208201518160010160006101000a8154816001600160a01b0302191690836001600160a01b0316021790555060408201518160020160006101000a8154816001600160a01b0302191690836001600160a01b0316021790555060608201518160020160146101000a8154816001600160401b0302191690836001600160401b0316021790555060808201518160030160006101000a8154816001600160401b0302191690836001600160401b0316021790555090505060006001600160a01b0316846001600160a01b031614611123576111217f828634d95e775031b9ff576b159a8509d3053581a8c9c4d7d86899e0afcd882f8561162a565b505b836001600160a01b0316856001600160a01b0316887fa60ec735ac1d6aaa44f00a1d947cdabb91b1bc88ad363a91dcb1d4b9d96344ce898787604051611185939291909283526001600160401b03918216602084015216604082015260600190565b60405180910390a450505050505050565b610681338383611889565b6111a961153e565b600080516020612e758339815191526111c18161144c565b600084815260086020526040902060018101546001600160a01b03166111fd5760405163071a106f60e11b8152600481018690526024016108b6565b6001600160401b03848116148061121c57506001600160401b03838116145b1561123a57604051637616640160e01b815260040160405180910390fd5b60028101805467ffffffffffffffff60a01b1916600160a01b6001600160401b038781169182029290921790925560038301805467ffffffffffffffff1916918616918217905560408051928352602083019190915286917f7de2ba5d395df24f909b467e5f700a471d16fc3ce7f87889e15ae83b6eb31474910160405180910390a25050505050565b6000828152600560205260409020600101546112df8161144c565b610a5383836116be565b6001600160a01b03918216600090815260016020908152604080832093909416825291909152205460ff1690565b336001600160a01b0386168114801590611338575061133686826112e9565b155b156113695760405163711bec9160e11b81526001600160a01b038083166004830152871660248201526044016108b6565b610ab8868686868661191f565b61137e61153e565b600082815260086020526040902060018101546001600160a01b03166113ba5760405163071a106f60e11b8152600481018490526024016108b6565b6113c48333611807565b6113ea5760405163266b177160e01b8152600481018490523360248201526044016108b6565b8054828255604080518281526020810185905285917f94400b4ef307fffa575bb3402c4a7f580f0098387e8909e4cc269fedaef8a0379101610e80565b60006001600160e01b03198216637965db0b60e01b148061064f575061064f826119ad565b610b3d81336119fd565b60026106818282612c86565b6040805160a081018252600080825260208201819052918101829052606081018290526080810191909152600082815260086020908152604091829020825160a0810184528154815260018201546001600160a01b03908116938201849052600283015490811694820194909452600160a01b9093046001600160401b03908116606085015260039091015416608083015261064f5760405163071a106f60e11b8152600481018490526024016108b6565b60026007540361153757604051633ee5aeb560e01b815260040160405180910390fd5b6002600755565b60065460ff16156115625760405163d93c066560e01b815260040160405180910390fd5b565b60008282016001600160401b038085169082161015610eba57604051637616640160e01b815260040160405180910390fd5b600081608001516001600160401b03166000036115b557506000919050565b61064f428360800151611564565b6001600160a01b0384166115ed57604051632bfa23e760e11b8152600060048201526024016108b6565b6001600160a01b03851661161657604051626a0d4560e21b8152600060048201526024016108b6565b6116238585858585611a36565b5050505050565b60006116368383610ec1565b6116b65760008381526005602090815260408083206001600160a01b03861684529091529020805460ff1916600117905561166e3390565b6001600160a01b0316826001600160a01b0316847f2f8788117e7eff1d82e926ec794901d17c78024a50270940304540a733656f0d60405160405180910390a450600161064f565b50600061064f565b60006116ca8383610ec1565b156116b65760008381526005602090815260408083206001600160a01b0386168085529252808320805460ff1916905551339286917ff6391f5c32d9c69d2a47ea670b442974b53935d1edc7fd64eb21e047a839171b9190a450600161064f565b611733611a89565b6006805460ff191690557f5db9ee0a495bf2e6ff9c91a7834c1ba4fdd244a5e8aa4e537bd38aeae4b073aa335b6040516001600160a01b03909116815260200160405180910390a1565b600081606001516001600160401b031660000361179c57506000919050565b61064f428360600151611564565b6001600160a01b0384166117d457604051632bfa23e760e11b8152600060048201526024016108b6565b60408051600180825260208201869052818301908152606082018590526080820190925290610ab8600087848487611a36565b6000611821600080516020612e7583398151915283610ec1565b80610eba575050600091825260086020526040909120600201546001600160a01b0391821691161490565b61185461153e565b6006805460ff191660011790557f62e78cea01bee320cd4e420270b5ea74000d11b0c9f74754ebdbfc544b05a2586117603390565b6001600160a01b0382166118b25760405162ced3e160e81b8152600060048201526024016108b6565b6001600160a01b03838116600081815260016020908152604080832094871680845294825291829020805460ff191686151590811790915591519182527f17307eab39ab6107e8899845ad3d59bd9653f200f220920489ca2b5937696c31910160405180910390a3505050565b6001600160a01b03841661194957604051632bfa23e760e11b8152600060048201526024016108b6565b6001600160a01b03851661197257604051626a0d4560e21b8152600060048201526024016108b6565b604080516001808252602082018690528183019081526060820185905260808201909252906119a48787848487611a36565b50505050505050565b60006001600160e01b03198216636cdb3d1360e11b14806119de57506001600160e01b031982166303a24d0760e21b145b8061064f57506301ffc9a760e01b6001600160e01b031983161461064f565b611a078282610ec1565b6106815760405163e2517d3f60e01b81526001600160a01b0382166004820152602481018390526044016108b6565b611a4285858585611aac565b6001600160a01b038416156116235782513390600103611a7b5760208481015190840151611a74838989858589611c3f565b5050610ab8565b610ab8818787878787611d63565b60065460ff1661156257604051638dfc202b60e01b815260040160405180910390fd5b6001600160a01b03841615801590611acc57506001600160a01b03831615155b8015611aed5750611aeb600080516020612e5583398151915233610ec1565b155b15611b0d57604051630589788760e41b81523360048201526024016108b6565b60005b8251811015611c32576000828281518110611b2d57611b2d612c28565b6020026020010151905060006001600160a01b0316866001600160a01b031603611b7a57611b75848381518110611b6657611b66612c28565b60200260200101518683611e4c565b611c29565b6001600160a01b038516611be15760096000858481518110611b9e57611b9e612c28565b602090810291909101810151825281810192909252604090810160009081206001600160a01b038a168252909252902080546001600160801b0319169055611c29565b611c05848381518110611bf657611bf6612c28565b60200260200101518783611f8a565b611c29848381518110611c1a57611c1a612c28565b6020026020010151878761210a565b50600101611b10565b50610a5384848484612263565b6001600160a01b0384163b15610ab85760405163f23a6e6160e01b81526001600160a01b0385169063f23a6e6190611c839089908990889088908890600401612d45565b6020604051808303816000875af1925050508015611cbe575060408051601f3d908101601f19168201909252611cbb91810190612d8a565b60015b611d27573d808015611cec576040519150601f19603f3d011682016040523d82523d6000602084013e611cf1565b606091505b508051600003611d1f57604051632bfa23e760e11b81526001600160a01b03861660048201526024016108b6565b805181602001fd5b6001600160e01b0319811663f23a6e6160e01b146119a457604051632bfa23e760e11b81526001600160a01b03861660048201526024016108b6565b6001600160a01b0384163b15610ab85760405163bc197c8160e01b81526001600160a01b0385169063bc197c8190611da79089908990889088908890600401612da7565b6020604051808303816000875af1925050508015611de2575060408051601f3d908101601f19168201909252611ddf91810190612d8a565b60015b611e10573d808015611cec576040519150601f19603f3d011682016040523d82523d6000602084013e611cf1565b6001600160e01b0319811663bc197c8160e01b146119a457604051632bfa23e760e11b81526001600160a01b03861660048201526024016108b6565b80600114611ea65760405162461bcd60e51b815260206004820152602160248201527f4d656d62657273686970206d696e7473207265717569726520616d6f756e74206044820152603160f81b60648201526084016108b6565b6000611eb184611462565b90506000611ebe8261177d565b90506000611ecb83611596565b6040805180820182526001600160401b038086168252808416602080840191825260008c8152600982528581206001600160a01b038d1680835292528590209351845492518416600160401b026001600160801b03199093169316929092171790915590519192509087907f6c9b5717d6d84a5cc938c626ff94c2e04f253f5b4f4534c2df896a1a8e2ffda590611f7a90869086906001600160401b0392831681529116602082015260400190565b60405180910390a3505050505050565b80600114611fe85760405162461bcd60e51b815260206004820152602560248201527f4d656d62657273686970207472616e7366657273207265717569726520616d6f604482015264756e74203160d81b60648201526084016108b6565b6001600160a01b03821615610b185760008381526009602090815260408083206001600160a01b03861684528252918290208251808401909352546001600160401b03808216808552600160401b90920416918301919091521580159061205b57504281600001516001600160401b0316105b1561209d57805160405163018f520b60e01b8152600481018690526001600160a01b03851660248201526001600160401b0390911660448201526064016108b6565b60208101516001600160401b0316158015906120c557504281602001516001600160401b0316115b15610a53576020810151604051630b38c21360e21b8152600481018690526001600160a01b03851660248201526001600160401b0390911660448201526064016108b6565b60008381526009602090815260408083206001600160a01b038616808552818452828520835180850190945280546001600160401b038082168652600160401b82041685870152918652919093526001600160801b03199092169091559061217185611462565b9050600081608001516001600160401b031660001461219d57612198428360800151611564565b6121a0565b60005b83516040805180820182526001600160401b038084168252808516602080840191825260008d8152600982528581206001600160a01b038d1680835292528590209351845492518416600160401b026001600160801b0319909316931692909217179091559051929350909188907f6c9b5717d6d84a5cc938c626ff94c2e04f253f5b4f4534c2df896a1a8e2ffda59061225290859087906001600160401b0392831681529116602082015260400190565b60405180910390a350505050505050565b61226f8484848461234f565b6001600160a01b0384166122ef576000805b83518110156122d557602081810284810182015190860182015160009081526003909252604082208054919283926122ba908490612e05565b909155506122ca90508184612e05565b925050600101612281565b5080600460008282546122e89190612e05565b9091555050505b6001600160a01b038316610a53576000805b835181101561233e576020818102848101820151908601820151600090815260039092526040909120805482900390559190910190600101612301565b506004805491909103905550505050565b805182511461237e5781518151604051635b05999160e01b8152600481019290925260248201526044016108b6565b3360005b8351811015612484576020818102858101820151908501909101516001600160a01b03881615612435576000828152602081815260408083206001600160a01b038c1684529091529020548181101561240e576040516303dee4c560e01b81526001600160a01b038a1660048201526024810182905260448101839052606481018490526084016108b6565b6000838152602081815260408083206001600160a01b038d16845290915290209082900390555b6001600160a01b0387161561247a576000828152602081815260408083206001600160a01b038b16845290915281208054839290612474908490612e05565b90915550505b5050600101612382565b5082516001036125055760208301516000906020840151909150856001600160a01b0316876001600160a01b0316846001600160a01b03167fc3d58168c5ae7397731d063d5bbf3d657854427343f4c083240f7aacaa2d0f6285856040516124f6929190918252602082015260400190565b60405180910390a45050611623565b836001600160a01b0316856001600160a01b0316826001600160a01b03167f4a39dc06d4c0dbc64b70af90fd698a233a518aa5d07e595d983b8c0526c8f7fb8686604051612554929190612e26565b60405180910390a45050505050565b80356001600160a01b038116811461257a57600080fd5b919050565b6000806040838503121561259257600080fd5b61259b83612563565b946020939093013593505050565b6001600160e01b031981168114610b3d57600080fd5b6000602082840312156125d157600080fd5b8135610eba816125a9565b634e487b7160e01b600052604160045260246000fd5b604051601f8201601f191681016001600160401b038111828210171561261a5761261a6125dc565b604052919050565b60006001600160401b0383111561263b5761263b6125dc565b61264e601f8401601f19166020016125f2565b905082815283838301111561266257600080fd5b828260208301376000602084830101529392505050565b60006020828403121561268b57600080fd5b81356001600160401b038111156126a157600080fd5b8201601f810184136126b257600080fd5b6126c184823560208401612622565b949350505050565b6000602082840312156126db57600080fd5b5035919050565b600080604083850312156126f557600080fd5b8235915061270560208401612563565b90509250929050565b6000815180845260005b8181101561273457602081850181015186830182015201612718565b506000602082860101526020601f19601f83011685010191505092915050565b602081526000610eba602083018461270e565b80356001600160401b038116811461257a57600080fd5b6000806000806080858703121561279457600080fd5b843593506127a460208601612563565b9250604085013591506127b960608601612767565b905092959194509250565b60006001600160401b038211156127dd576127dd6125dc565b5060051b60200190565b600082601f8301126127f857600080fd5b8135602061280d612808836127c4565b6125f2565b8083825260208201915060208460051b87010193508684111561282f57600080fd5b602086015b8481101561284b5780358352918301918301612834565b509695505050505050565b600082601f83011261286757600080fd5b610eba83833560208501612622565b600080600080600060a0868803121561288e57600080fd5b61289786612563565b94506128a560208701612563565b935060408601356001600160401b03808211156128c157600080fd5b6128cd89838a016127e7565b945060608801359150808211156128e357600080fd5b6128ef89838a016127e7565b9350608088013591508082111561290557600080fd5b5061291288828901612856565b9150509295509295909350565b6000806040838503121561293257600080fd5b82356001600160401b038082111561294957600080fd5b818501915085601f83011261295d57600080fd5b8135602061296d612808836127c4565b82815260059290921b8401810191818101908984111561298c57600080fd5b948201945b838610156129b1576129a286612563565b82529482019490820190612991565b965050860135925050808211156129c757600080fd5b506129d4858286016127e7565b9150509250929050565b60008151808452602080850194506020840160005b83811015612a0f578151875295820195908201906001016129f3565b509495945050505050565b602081526000610eba60208301846129de565b600080600060608486031215612a4257600080fd5b612a4b84612563565b95602085013595506040909401359392505050565b60008060008060008060c08789031215612a7957600080fd5b8635955060208701359450612a9060408801612563565b9350612a9e60608801612563565b9250612aac60808801612767565b9150612aba60a08801612767565b90509295509295509295565b60008060408385031215612ad957600080fd5b612ae283612563565b915060208301358015158114612af757600080fd5b809150509250929050565b600080600060608486031215612b1757600080fd5b83359250612b2760208501612767565b9150612b3560408501612767565b90509250925092565b60008060408385031215612b5157600080fd5b612b5a83612563565b915061270560208401612563565b600080600080600060a08688031215612b8057600080fd5b612b8986612563565b9450612b9760208701612563565b9350604086013592506060860135915060808601356001600160401b03811115612bc057600080fd5b61291288828901612856565b60008060408385031215612bdf57600080fd5b50508035926020909101359150565b600181811c90821680612c0257607f821691505b602082108103612c2257634e487b7160e01b600052602260045260246000fd5b50919050565b634e487b7160e01b600052603260045260246000fd5b601f821115610b18576000816000526020600020601f850160051c81016020861015612c675750805b601f850160051c820191505b81811015610ab857828155600101612c73565b81516001600160401b03811115612c9f57612c9f6125dc565b612cb381612cad8454612bee565b84612c3e565b602080601f831160018114612ce85760008415612cd05750858301515b600019600386901b1c1916600185901b178555610ab8565b600085815260208120601f198616915b82811015612d1757888601518255948401946001909101908401612cf8565b5085821015612d355787850151600019600388901b60f8161c191681555b5050505050600190811b01905550565b6001600160a01b03868116825285166020820152604081018490526060810183905260a060808201819052600090612d7f9083018461270e565b979650505050505050565b600060208284031215612d9c57600080fd5b8151610eba816125a9565b6001600160a01b0386811682528516602082015260a060408201819052600090612dd3908301866129de565b8281036060840152612de581866129de565b90508281036080840152612df9818561270e565b98975050505050505050565b8082018082111561064f57634e487b7160e01b600052601160045260246000fd5b604081526000612e3960408301856129de565b8281036020840152612e4b81856129de565b9594505050505056fe0ea61da3a8a09ad801432653699f8c1860b1ae9d2ea4a141fadfd63227717bc8a49807205ce4d355092ef5a8a18f56e8913cf4a201fbe287825b095693c21775a2646970667358221220b34c2d3b6491b85a682ee35068257e1cabe6c48366d5f3c2bbeb6826e0277c8d64736f6c63430008190033",
  "linkReferences": {},
  "deployedLinkReferences": {}
}