{
  "_format": "hh-sol-artifact-1",
  "contractName": "MembershipMarketplace",
  "sourceName": "contracts/MembershipMarketplace.sol",
  "abi": [
    {
      "inputs": [
        {
          "internalType": "contract MembershipPass1155",
          "name": "membershipContract",
          "type": "address"
        },
        {
          "internalType": "address",
          "name": "admin",
          "type": "address"
        },
        {
          "internalType": "address",
          "name": "treasuryAddress",
          "type": "address"
        },
        {
          "internalType": "uint96",
          "name": "feeBps",
          "type": "uint96"
        },
        {
          "internalType": "uint64",
          "name": "listingDuration",
          "type": "uint64"
        }
      ],
      "stateMutability": "nonpayable",
      "type": "constructor"
    },
    {
      "inputs": [],
      "name": "AccessControlBadConfirmation",
      "type": "error"
    },
    {
      "inputs": [
        {
          "internalType": "address",
          "name": "account",
          "type": "address"
        },
        {
          "internalType": "bytes32",
          "name": "neededRole",
          "type": "bytes32"
        }
      ],
      "name": "AccessControlUnauthorizedAccount",
      "type": "error"
    },
    {
      "inputs": [
        {
          "internalType": "uint64",
          "name": "availableAt",
          "type": "uint64"
        }
      ],
      "name": "CooldownActive",
      "type": "error"
    },
    {
      "inputs": [],
      "name": "DurationTooLong",
      "type": "error"
    },
    {
      "inputs": [],
      "name": "EnforcedPause",
      "type": "error"
    },
    {
      "inputs": [],
      "name": "ExpectedPause",
      "type": "error"
    },
    {
      "inputs": [],
      "name": "InsufficientPayment",
      "type": "error"
    },
    {
      "inputs": [],
      "name": "InvalidAddress",
      "type": "error"
    },
    {
      "inputs": [],
      "name": "InvalidDuration",
      "type": "error"
    },
    {
      "inputs": [],
      "name": "InvalidFee",
      "type": "error"
    },
    {
      "inputs": [],
      "name": "InvalidPrice",
      "type": "error"
    },
    {
      "inputs": [
        {
          "internalType": "uint256",
          "name": "courseId",
          "type": "uint256"
        },
        {
          "internalType": "address",
          "name": "seller",
          "type": "address"
        }
      ],
      "name": "ListingExpired",
      "type": "error"
    },
    {
      "inputs": [
        {
          "internalType": "uint256",
          "name": "courseId",
          "type": "uint256"
        },
        {
          "internalType": "address",
          "name": "seller",
          "type": "address"
        }
      ],
      "name": "ListingNotFound",
      "type": "error"
    },
    {
      "inputs": [
        {
          "internalType": "uint64",
          "name": "expiredAt",
          "type": "uint64"
        }
      ],
      "name": "MembershipExpired",
      "type": "error"
    },
    {
      "inputs": [],
      "name": "NativeTransferFailed",
      "type": "error"
    },
    {
      "inputs": [],
      "name": "PassNotHeld",
      "type": "error"
    },
    {
      "inputs": [],
      "name": "ReentrancyGuardReentrantCall",
      "type": "error"
    },
    {
      "anonymous": false,
      "inputs": [
        {
          "indexed": true,
          "internalType": "uint256",
          "name": "courseId",
          "type": "uint256"
        },
        {
          "indexed": true,
          "internalType": "address",
          "name": "seller",
          "type": "address"
        }
      ],
      "name": "ListingCancelled",
      "type": "event"
    },
    {
      "anonymous": false,
      "inputs": [
        {
          "indexed": true,
          "internalType": "uint256",
          "name": "courseId",
          "type": "uint256"
        },
        {
          "indexed": true,
          "internalType": "address",
          "name": "seller",
          "type": "address"
        },
        {
          "indexed": false,
          "internalType": "uint256",
          "name": "priceWei",
          "type": "uint256"
        },
        {
          "indexed": false,
          "internalType": "uint64",
          "name": "listedAt",
          "type": "uint64"
        },
        {
          "indexed": false,
          "internalType": "uint64",
          "name": "expiresAt",
          "type": "uint64"
        },
        {
          "indexed": false,
          "internalType": "uint64",
          "name": "passExpiresAt",
          "type": "uint64"
        }
      ],
      "name": "ListingCreated",
      "type": "event"
    },
    {
      "anonymous": false,
      "inputs": [
        {
          "indexed": false,
          "internalType": "uint64",
          "name": "previousDuration",
          "type": "uint64"
        },
        {
          "indexed": false,
          "internalType": "uint64",
          "name": "newDuration",
          "type": "uint64"
        }
      ],
      "name": "ListingDurationUpdated",
      "type": "event"
    },
    {
      "anonymous": false,
      "inputs": [
        {
          "indexed": true,
          "internalType": "uint256",
          "name": "courseId",
          "type": "uint256"
        },
        {
          "indexed": true,
          "internalType": "address",
          "name": "seller",
          "type": "address"
        },
        {
          "indexed": true,
          "internalType": "address",
          "name": "buyer",
          "type": "address"
        },
        {
          "indexed": false,
          "internalType": "uint256",
          "name": "priceWei",
          "type": "uint256"
        },
        {
          "indexed": false,
          "internalType": "uint256",
          "name": "feeWei",
          "type": "uint256"
        }
      ],
      "name": "ListingPurchased",
      "type": "event"
    },
    {
      "anonymous": false,
      "inputs": [
        {
          "indexed": true,
          "internalType": "uint256",
          "name": "courseId",
          "type": "uint256"
        },
        {
          "indexed": true,
          "internalType": "address",
          "name": "account",
          "type": "address"
        },
        {
          "indexed": false,
          "internalType": "uint256",
          "name": "priceWei",
          "type": "uint256"
        },
        {
          "indexed": false,
          "internalType": "uint256",
          "name": "feeWei",
          "type": "uint256"
        },
        {
          "indexed": false,
          "internalType": "uint64",
          "name": "newExpiry",
          "type": "uint64"
        }
      ],
      "name": "PassRenewedOnMarketplace",
      "type": "event"
    },
    {
      "anonymous": false,
      "inputs": [
        {
          "indexed": false,
          "internalType": "address",
          "name": "account",
          "type": "address"
        }
      ],
      "name": "Paused",
      "type": "event"
    },
    {
      "anonymous": false,
      "inputs": [
        {
          "indexed": false,
          "internalType": "uint96",
          "name": "previousFeeBps",
          "type": "uint96"
        },
        {
          "indexed": false,
          "internalType": "uint96",
          "name": "newFeeBps",
          "type": "uint96"
        }
      ],
      "name": "PlatformFeeUpdated",
      "type": "event"
    },
    {
      "anonymous": false,
      "inputs": [
        {
          "indexed": true,
          "internalType": "uint256",
          "name": "courseId",
          "type": "uint256"
        },
        {
          "indexed": true,
          "internalType": "address",
          "name": "buyer",
          "type": "address"
        },
        {
          "indexed": false,
          "internalType": "uint256",
          "name": "priceWei",
          "type": "uint256"
        },
        {
          "indexed": false,
          "internalType": "uint256",
          "name": "feeWei",
          "type": "uint256"
        }
      ],
      "name": "PrimaryPurchase",
      "type": "event"
    },
    {
      "anonymous": false,
      "inputs": [
        {
          "indexed": true,
          "internalType": "bytes32",
          "name": "role",
          "type": "bytes32"
        },
        {
          "indexed": true,
          "internalType": "bytes32",
          "name": "previousAdminRole",
          "type": "bytes32"
        },
        {
          "indexed": true,
          "internalType": "bytes32",
          "name": "newAdminRole",
          "type": "bytes32"
        }
      ],
      "name": "RoleAdminChanged",
      "type": "event"
    },
    {
      "anonymous": false,
      "inputs": [
        {
          "indexed": true,
          "internalType": "bytes32",
          "name": "role",
          "type": "bytes32"
        },
        {
          "indexed": true,
          "internalType": "address",
          "name": "account",
          "type": "address"
        },
        {
          "indexed": true,
          "internalType": "address",
          "name": "sender",
          "type": "address"
        }
      ],
      "name": "RoleGranted",
      "type": "event"
    },
    {
      "anonymous": false,
      "inputs": [
        {
          "indexed": true,
          "internalType": "bytes32",
          "name": "role",
          "type": "bytes32"
        },
        {
          "indexed": true,
          "internalType": "address",
          "name": "account",
          "type": "address"
        },
        {
          "indexed": true,
          "internalType": "address",
          "name": "sender",
          "type": "address"
        }
      ],
      "name": "RoleRevoked",
      "type": "event"
    },
    {
      "anonymous": false,
      "inputs": [
        {
          "indexed": true,
          "internalType": "address",
          "name": "previousTreasury",
          "type": "address"
        },
        {
          "indexed": true,
          "internalType": "address",
          "name": "newTreasury",
          "type": "address"
        }
      ],
      "name": "TreasuryUpdated",
      "type": "event"
    },
    {
      "anonymous": false,
      "inputs": [
        {
          "indexed": false,
          "internalType": "address",
          "name": "account",
          "type": "address"
        }
      ],
      "name": "Unpaused",
      "type": "event"
    },
    {
      "inputs": [],
      "name": "DEFAULT_ADMIN_ROLE",
      "outputs": [
        {
          "internalType": "bytes32",
          "name": "",
          "type": "bytes32"
        }
      ],
      "stateMutability": "view",
      "type": "function"
    },
    {
      "inputs": [],
      "name": "FEE_DENOMINATOR",
      "outputs": [
        {
          "internalType": "uint96",
          "name": "",
          "type": "uint96"
        }
      ],
      "stateMutability": "view",
      "type": "function"
    },
    {
      "inputs": [],
      "name": "MANAGER_ROLE",
      "outputs": [
        {
          "internalType": "bytes32",
          "name": "",
          "type": "bytes32"
        }
      ],
      "stateMutability": "view",
      "type": "function"
    },
    {
      "inputs": [],
      "name": "MAX_PLATFORM_FEE_BPS",
      "outputs": [
        {
          "internalType": "uint96",
          "name": "",
          "type": "uint96"
        }
      ],
      "stateMutability": "view",
      "type": "function"
    },
    {
      "inputs": [
        {
          "internalType": "uint256",
          "name": "courseId",
          "type": "uint256"
        },
        {
          "internalType": "address",
          "name": "seller",
          "type": "address"
        },
        {
          "internalType": "uint256",
          "name": "maxPrice",
          "type": "uint256"
        }
      ],
      "name": "buyListing",
      "outputs": [],
      "stateMutability": "payable",
      "type": "function"
    },
    {
      "inputs": [
        {
          "internalType": "uint256",
          "name": "courseId",
          "type": "uint256"
        }
      ],
      "name": "cancelListing",
      "outputs": [],
      "stateMutability": "nonpayable",
      "type": "function"
    },
    {
      "inputs": [
        {
          "internalType": "uint256",
          "name": "courseId",
          "type": "uint256"
        },
        {
          "internalType": "uint256",
          "name": "priceWei",
          "type": "uint256"
        },
        {
          "internalType": "uint64",
          "name": "durationSeconds",
          "type": "uint64"
        }
      ],
      "name": "createListing",
      "outputs": [],
      "stateMutability": "nonpayable",
      "type": "function"
    },
    {
      "inputs": [
        {
          "internalType": "uint256",
          "name": "courseId",
          "type": "uint256"
        }
      ],
      "name": "getActiveListings",
      "outputs": [
        {
          "components": [
            {
              "internalType": "address",
              "name": "seller",
              "type": "address"
            },
            {
              "internalType": "uint256",
              "name": "priceWei",
              "type": "uint256"
            },
            {
              "internalType": "uint64",
              "name": "listedAt",
              "type": "uint64"
            },
            {
              "internalType": "uint64",
              "name": "expiresAt",
              "type": "uint64"
            },
            {
              "internalType": "bool",
              "name": "active",
              "type": "bool"
            }
          ],
          "internalType": "struct MembershipMarketplace.Listing[]",
          "name": "listings",
          "type": "tuple[]"
        }
      ],
      "stateMutability": "view",
      "type": "function"
    },
    {
      "inputs": [
        {
          "internalType": "uint256",
          "name": "courseId",
          "type": "uint256"
        },
        {
          "internalType": "address",
          "name": "seller",
          "type": "address"
        }
      ],
      "name": "getListing",
      "outputs": [
        {
          "components": [
            {
              "internalType": "address",
              "name": "seller",
              "type": "address"
            },
            {
              "internalType": "uint256",
              "name": "priceWei",
              "type": "uint256"
            },
            {
              "internalType": "uint64",
              "name": "listedAt",
              "type": "uint64"
            },
            {
              "internalType": "uint64",
              "name": "expiresAt",
              "type": "uint64"
            },
            {
              "internalType": "bool",
              "name": "active",
              "type": "bool"
            }
          ],
          "internalType": "struct MembershipMarketplace.Listing",
          "name": "",
          "type": "tuple"
        }
      ],
      "stateMutability": "view",
      "type": "function"
    },
    {
      "inputs": [
        {
          "internalType": "bytes32",
          "name": "role",
          "type": "bytes32"
        }
      ],
      "name": "getRoleAdmin",
      "outputs": [
        {
          "internalType": "bytes32",
          "name": "",
          "type": "bytes32"
        }
      ],
      "stateMutability": "view",
      "type": "function"
    },
    {
      "inputs": [
        {
          "internalType": "bytes32",
          "name": "role",
          "type": "bytes32"
        },
        {
          "internalType": "address",
          "name": "account",
          "type": "address"
        }
      ],
      "name": "grantRole",
      "outputs": [],
      "stateMutability": "nonpayable",
      "type": "function"
    },
    {
      "inputs": [
        {
          "internalType": "bytes32",
          "name": "role",
          "type": "bytes32"
        },
        {
          "internalType": "address",
          "name": "account",
          "type": "address"
        }
      ],
      "name": "hasRole",
      "outputs": [
        {
          "internalType": "bool",
          "name": "",
          "type": "bool"
        }
      ],
      "stateMutability": "view",
      "type": "function"
    },
    {
      "inputs": [],
      "name": "maxListingDuration",
      "outputs": [
        {
          "internalType": "uint64",
          "name": "",
          "type": "uint64"
        }
      ],
      "stateMutability": "view",
      "type": "function"
    },
    {
      "inputs": [],
      "name": "membership",
      "outputs": [
        {
          "internalType": "contract MembershipPass1155",
          "name": "",
          "type": "address"
        }
      ],
      "stateMutability": "view",
      "type": "function"
    },
    {
      "inputs": [],
      "name": "pause",
      "outputs": [],
      "stateMutability": "nonpayable",
      "type": "function"
    },
    {
      "inputs": [],
      "name": "paused",
      "outputs": [
        {
          "internalType": "bool",
          "name": "",
          "type": "bool"
        }
      ],
      "stateMutability": "view",
      "type": "function"
    },
    {
      "inputs": [],
      "name": "platformFeeBps",
      "outputs": [
        {
          "internalType": "uint96",
          "name": "",
          "type": "uint96"
        }
      ],
      "stateMutability": "view",
      "type": "function"
    },
    {
      "inputs": [
        {
          "internalType": "uint256",
          "name": "courseId",
          "type": "uint256"
        },
        {
          "internalType": "uint256",
          "name": "maxPrice",
          "type": "uint256"
        }
      ],
      "name": "purchasePrimary",
      "outputs": [],
      "stateMutability": "payable",
      "type": "function"
    },
    {
      "inputs": [
        {
          "internalType": "uint256",
          "name": "courseId",
          "type": "uint256"
        },
        {
          "internalType": "uint256",
          "name": "maxPrice",
          "type": "uint256"
        }
      ],
      "name": "renew",
      "outputs": [],
      "stateMutability": "payable",
      "type": "function"
    },
    {
      "inputs": [
        {
          "internalType": "bytes32",
          "name": "role",
          "type": "bytes32"
        },
        {
          "internalType": "address",
          "name": "callerConfirmation",
          "type": "address"
        }
      ],
      "name": "renounceRole",
      "outputs": [],
      "stateMutability": "nonpayable",
      "type": "function"
    },
    {
      "inputs": [
        {
          "internalType": "bytes32",
          "name": "role",
          "type": "bytes32"
        },
        {
          "internalType": "address",
          "name": "account",
          "type": "address"
        }
      ],
      "name": "revokeRole",
      "outputs": [],
      "stateMutability": "nonpayable",
      "type": "function"
    },
    {
      "inputs": [
        {
          "internalType": "uint64",
          "name": "newDuration",
          "type": "uint64"
        }
      ],
      "name": "setMaxListingDuration",
      "outputs": [],
      "stateMutability": "nonpayable",
      "type": "function"
    },
    {
      "inputs": [
        {
          "internalType": "uint96",
          "name": "newFeeBps",
          "type": "uint96"
        }
      ],
      "name": "setPlatformFeeBps",
      "outputs": [],
      "stateMutability": "nonpayable",
      "type": "function"
    },
    {
      "inputs": [
        {
          "internalType": "address",
          "name": "newTreasury",
          "type": "address"
        }
      ],
      "name": "setTreasury",
      "outputs": [],
      "stateMutability": "nonpayable",
      "type": "function"
    },
    {
      "inputs": [
        {
          "internalType": "bytes4",
          "name": "interfaceId",
          "type": "bytes4"
        }
      ],
      "name": "supportsInterface",
      "outputs": [
        {
          "internalType": "bool",
          "name": "",
          "type": "bool"
        }
      ],
      "stateMutability": "view",
      "type": "function"
    },
    {
      "inputs": [],
      "name": "treasury",
      "outputs": [
        {
          "internalType": "address",
          "name": "",
          "type": "address"
        }
      ],
      "stateMutability": "view",
      "type": "function"
    },
    {
      "inputs": [],
      "name": "unpause",
      "outputs": [],
      "stateMutability": "nonpayable",
      "type": "function"
    }
  ],
  "bytecode": "0x60a060405234801561001057600080fd5b506040516125a93803806125a983398101604081905261002f91610206565b60016002556001600160a01b03851661005b5760405163e6c4247b60e01b815260040160405180910390fd5b6001600160a01b038416158061007857506001600160a01b038316155b156100965760405163e6c4247b60e01b815260040160405180910390fd5b6103e86001600160601b03831611156100c2576040516358d620b360e01b815260040160405180910390fd5b6001600160a01b038581166080528316600160a01b6001600160601b0384160217600355600480546001600160401b0319166001600160401b03831617905561010c600085610142565b506101377f241ecf16d79d0f8dbfb92cbc07fe17840425976cf0667f022fe9877caa831b0885610142565b505050505050610293565b6000828152602081815260408083206001600160a01b038516845290915281205460ff166101e4576000838152602081815260408083206001600160a01b03861684529091529020805460ff1916600117905561019c3390565b6001600160a01b0316826001600160a01b0316847f2f8788117e7eff1d82e926ec794901d17c78024a50270940304540a733656f0d60405160405180910390a45060016101e8565b5060005b92915050565b6001600160a01b038116811461020357600080fd5b50565b600080600080600060a0868803121561021e57600080fd5b8551610229816101ee565b602087015190955061023a816101ee565b604087015190945061024b816101ee565b60608701519093506001600160601b038116811461026857600080fd5b60808701519092506001600160401b038116811461028557600080fd5b809150509295509295909350565b6080516122ae6102fb600039600081816104cc015281816106730152818161073001528181610d8e01528181610e2f01528181610fa5015281816110db0152818161116c0152818161131b0152818161139d0152818161149f015261160701526122ae6000f3fe60806040526004361061019c5760003560e01c80638456cb59116100ec578063d0a198521161008a578063def050c511610064578063def050c51461054a578063e698750114610582578063ec87621c146105af578063f0f44260146105d157600080fd5b8063d0a1985214610501578063d547741f14610514578063d73792a91461053457600080fd5b8063935b74c8116100c6578063935b74c8146103d8578063a217fddf146104a5578063a2bf68b9146104ba578063c475abff146104ee57600080fd5b80638456cb591461038d5780638d01513c146103a257806391d14854146103b857600080fd5b8063305a67a8116101595780635c975abb116101335780635c975abb1461030a57806360b2cf101461032257806361d027b3146103425780636266d70a1461037a57600080fd5b8063305a67a8146102b557806336568abe146102d55780633f4ba83a146102f557600080fd5b806301ffc9a7146101a157806304f1cc5c146101d657806322dcd13e146101f8578063248a9ca3146102375780632f2ff15d1461027557806330289c0114610295575b600080fd5b3480156101ad57600080fd5b506101c16101bc366004611e0a565b6105f1565b60405190151581526020015b60405180910390f35b3480156101e257600080fd5b506101f66101f1366004611e50565b610628565b005b34801561020457600080fd5b5060035461021f90600160a01b90046001600160601b031681565b6040516001600160601b0390911681526020016101cd565b34801561024357600080fd5b50610267610252366004611e89565b60009081526020819052604090206001015490565b6040519081526020016101cd565b34801561028157600080fd5b506101f6610290366004611eb7565b6109f9565b3480156102a157600080fd5b506101f66102b0366004611ee7565b610a24565b3480156102c157600080fd5b506101f66102d0366004611e89565b610aa7565b3480156102e157600080fd5b506101f66102f0366004611eb7565b610b47565b34801561030157600080fd5b506101f6610b7a565b34801561031657600080fd5b5060015460ff166101c1565b34801561032e57600080fd5b506101f661033d366004611f04565b610b9a565b34801561034e57600080fd5b50600354610362906001600160a01b031681565b6040516001600160a01b0390911681526020016101cd565b6101f6610388366004611f2d565b610c55565b34801561039957600080fd5b506101f6611069565b3480156103ae57600080fd5b5061021f6103e881565b3480156103c457600080fd5b506101c16103d3366004611eb7565b611089565b3480156103e457600080fd5b506104986103f3366004611eb7565b6040805160a0810182526000808252602082018190529181018290526060810182905260808101919091525060009182526005602090815260408084206001600160a01b039384168552825292839020835160a08101855281549093168352600181015491830191909152600201546001600160401b0380821693830193909352600160401b81049092166060820152600160801b90910460ff161515608082015290565b6040516101cd9190611fae565b3480156104b157600080fd5b50610267600081565b3480156104c657600080fd5b506103627f000000000000000000000000000000000000000000000000000000000000000081565b6101f66104fc366004611fbc565b6110b2565b6101f661050f366004611fbc565b611476565b34801561052057600080fd5b506101f661052f366004611eb7565b6116b6565b34801561054057600080fd5b5061021f61271081565b34801561055657600080fd5b5060045461056a906001600160401b031681565b6040516001600160401b0390911681526020016101cd565b34801561058e57600080fd5b506105a261059d366004611e89565b6116db565b6040516101cd9190611fde565b3480156105bb57600080fd5b5061026760008051602061225983398151915281565b3480156105dd57600080fd5b506101f66105ec36600461202c565b6118d9565b60006001600160e01b03198216637965db0b60e01b148061062257506301ffc9a760e01b6001600160e01b03198316145b92915050565b610630611975565b61063861199d565b816000036106585760405162bfc92160e01b815260040160405180910390fd5b604051627eeac760e11b8152336004820152602481018490527f00000000000000000000000000000000000000000000000000000000000000006001600160a01b03169062fdd58e90604401602060405180830381865afa1580156106c1573d6000803e3d6000fd5b505050506040513d601f19601f820116820180604052508101906106e59190612049565b6000036107055760405163579c562b60e01b815260040160405180910390fd5b604051630717bc5d60e11b815260048101849052336024820152600090819081906001600160a01b037f00000000000000000000000000000000000000000000000000000000000000001690630e2f78ba90604401606060405180830381865afa158015610777573d6000803e3d6000fd5b505050506040513d601f19601f8201168201806040525081019061079b9190612062565b92509250925082610855576001600160401b038116158015906107c6575042816001600160401b0316105b156107f35760405162940cc760e21b81526001600160401b03821660048201526024015b60405180910390fd5b6001600160401b03821615801590610813575042826001600160401b0316115b1561083c576040516315f3b7ab60e01b81526001600160401b03831660048201526024016107ea565b60405163579c562b60e01b815260040160405180910390fd5b6000610860856119c3565b90506001600160401b0381161580159061088257506001600160401b03821615155b801561089f5750816001600160401b0316816001600160401b0316115b156108a75750805b60008781526005602090815260408083203380855290835281842080546001600160a01b03191682178155600181018b905560028101805460ff60801b196001600160401b03898116600160401b026fffffffffffffffffffffffffffffffff199093164291909116179190911716600160801b1790558b85526007845282852091855292529091205460ff1661098b5760008881526006602090815260408083208054600181810183559185528385200180546001600160a01b031916339081179091558c855260078452828520908552909252909120805460ff191690911790555b6002810154604080518981526001600160401b0392831660208201528483168183015291851660608301525133918a917faee8c732a9a96ac9b05cf776dd7d1307a2d47dc7fa159d2859c626d95c053fb69181900360800190a350505050506109f46001600255565b505050565b600082815260208190526040902060010154610a1481611a5e565b610a1e8383611a68565b50505050565b600080516020612259833981519152610a3c81611a5e565b600454604080516001600160401b03928316815291841660208301527fe0143d9667809f0d20f3f965a3664a37ae8eab29a8abf10fcb9f69d21546866c910160405180910390a1506004805467ffffffffffffffff19166001600160401b0392909216919091179055565b610aaf611975565b600081815260056020908152604080832033845290915290206002810154600160801b900460ff16610afd57604051633232d8bd60e21b8152600481018390523360248201526044016107ea565b60028101805460ff60801b19169055604051339083907f8e25282255ab31897df2b0456bb993ac7f84d376861aefd84901d2d63a7428a290600090a350610b446001600255565b50565b6001600160a01b0381163314610b705760405163334bd91960e11b815260040160405180910390fd5b6109f48282611afa565b600080516020612259833981519152610b9281611a5e565b610b44611b65565b600080516020612259833981519152610bb281611a5e565b6103e86001600160601b0383161115610bde576040516358d620b360e01b815260040160405180910390fd5b600354604080516001600160601b03600160a01b9093048316815291841660208301527ffeeddf72b7ee4210b769104cb8b071e5706232ac7f671fb292af429ffd58b587910160405180910390a150600380546001600160601b03909216600160a01b026001600160a01b03909216919091179055565b610c5d611975565b610c6561199d565b60008381526005602090815260408083206001600160a01b038616845290915290206002810154600160801b900460ff16610cc557604051633232d8bd60e21b8152600481018590526001600160a01b03841660248201526044016107ea565b6002810154600160401b90046001600160401b031615801590610cfc5750600281015442600160401b9091046001600160401b0316105b15610d3b5760028101805460ff60801b1916905560405163085c83d360e11b8152600481018590526001600160a01b03841660248201526044016107ea565b6001810154801580610d4c57508281115b15610d695760405162bfc92160e01b815260040160405180910390fd5b604051627eeac760e11b81526001600160a01b038581166004830152602482018790527f0000000000000000000000000000000000000000000000000000000000000000169062fdd58e90604401602060405180830381865afa158015610dd4573d6000803e3d6000fd5b505050506040513d601f19601f82011682018060405250810190610df89190612049565b600003610e285760028201805460ff60801b191690556040805163579c562b60e01b815290519081900360040190fd5b60008060007f00000000000000000000000000000000000000000000000000000000000000006001600160a01b0316630e2f78ba89896040518363ffffffff1660e01b8152600401610e8d9291909182526001600160a01b0316602082015260400190565b606060405180830381865afa158015610eaa573d6000803e3d6000fd5b505050506040513d601f19601f82011682018060405250810190610ece9190612062565b92509250925082610f30576001600160401b03811615801590610ef9575042816001600160401b0316105b156107f35760028501805460ff60801b1916905560405162940cc760e21b81526001600160401b03821660048201526024016107ea565b610f3984611bb7565b6000610f4485611c0e565b90506000610f5282876120bf565b90508015610f6457610f648982611c89565b604051637921219560e11b81526001600160a01b038a81166004830152336024830152604482018c90526001606483015260a06084830152600060a48301527f0000000000000000000000000000000000000000000000000000000000000000169063f242432a9060c401600060405180830381600087803b158015610fe957600080fd5b505af1158015610ffd573d6000803e3d6000fd5b5050505060028701805460ff60801b19169055604080518781526020810184905233916001600160a01b038c16918d917f67806fb1f9a1d5258c8ae3101868dc1bbd114cb2c1829b37dbdd88d64cf17d82910160405180910390a4505050505050506109f46001600255565b60008051602061225983398151915261108181611a5e565b610b44611d09565b6000918252602082815260408084206001600160a01b0393909316845291905290205460ff1690565b6110ba611975565b6110c261199d565b604051630b91e28d60e01b8152600481018390526000907f00000000000000000000000000000000000000000000000000000000000000006001600160a01b031690630b91e28d9060240160a060405180830381865afa15801561112a573d6000803e3d6000fd5b505050506040513d601f19601f8201168201806040525081019061114e91906120e8565b604051627eeac760e11b8152336004820152602481018590529091507f00000000000000000000000000000000000000000000000000000000000000006001600160a01b03169062fdd58e90604401602060405180830381865afa1580156111ba573d6000803e3d6000fd5b505050506040513d601f19601f820116820180604052508101906111de9190612049565b6000036111fe5760405163579c562b60e01b815260040160405180910390fd5b80606001516001600160401b031660000361122c57604051637616640160e01b815260040160405180910390fd5b805180158061123a57508281115b156112575760405162bfc92160e01b815260040160405180910390fd5b61126081611bb7565b600061126b82611c0e565b9050600061127982846120bf565b905080156112e357602084015160405163078d4c2b60e01b81523360048201526001600160a01b039091169063078d4c2b9083906024016000604051808303818588803b1580156112c957600080fd5b505af11580156112dd573d6000803e3d6000fd5b50505050505b6060840151604051630f40bab160e11b815260048101889052336024820152604481018590526001600160401b0390911660648201527f00000000000000000000000000000000000000000000000000000000000000006001600160a01b031690631e81756290608401600060405180830381600087803b15801561136757600080fd5b505af115801561137b573d6000803e3d6000fd5b50506040516305b64bd360e41b815260048101899052336024820152600092507f00000000000000000000000000000000000000000000000000000000000000006001600160a01b03169150635b64bd30906044016040805180830381865afa1580156113ec573d6000803e3d6000fd5b505050506040513d601f19601f820116820180604052508101906114109190612184565b805160408051878152602081018790526001600160401b0390921690820152909150339088907f0e2fcdd78f7f0b4b2eb8150829650c30cfc3c9c8cf267afe9368be6934a52ec59060600160405180910390a350505050506114726001600255565b5050565b61147e611975565b61148661199d565b604051630b91e28d60e01b8152600481018390526000907f00000000000000000000000000000000000000000000000000000000000000006001600160a01b031690630b91e28d9060240160a060405180830381865afa1580156114ee573d6000803e3d6000fd5b505050506040513d601f19601f8201168201806040525081019061151291906120e8565b805190915060008190036115385760405162bfc92160e01b815260040160405180910390fd5b828111156115585760405162bfc92160e01b815260040160405180910390fd5b61156181611bb7565b600061156c82611c0e565b9050600061157a82846120bf565b905080156115e457602084015160405163078d4c2b60e01b81523360048201526001600160a01b039091169063078d4c2b9083906024016000604051808303818588803b1580156115ca57600080fd5b505af11580156115de573d6000803e3d6000fd5b50505050505b6040516313dfbea760e21b815233600482015260248101879052604481018490527f00000000000000000000000000000000000000000000000000000000000000006001600160a01b031690634f7efa9c90606401600060405180830381600087803b15801561165357600080fd5b505af1158015611667573d6000803e3d6000fd5b505060408051868152602081018690523393508992507fead43b71f690f74c35127d2437a13bb7a913033f0b86728d1281e33effa6b617910160405180910390a3505050506114726001600255565b6000828152602081905260409020600101546116d181611a5e565b610a1e8383611afa565b6000818152600660205260408120606091805b82548110156117665760008581526005602052604081208454829086908590811061171b5761171b6121f0565b60009182526020808320909101546001600160a01b031683528201929092526040019020905061174a81611d44565b1561175d578261175981612206565b9350505b506001016116ee565b50806001600160401b0381111561177f5761177f6120d2565b6040519080825280602002602001820160405280156117d857816020015b6040805160a08101825260008082526020808301829052928201819052606082018190526080820152825260001990920191018161179d5790505b5092506000805b83548110156118d05760008681526005602052604081208554829087908590811061180c5761180c6121f0565b60009182526020808320909101546001600160a01b031683528201929092526040019020905061183b81611d44565b156118c7576040805160a08101825282546001600160a01b031681526001830154602082015260028301546001600160401b0380821693830193909352600160401b81049092166060820152600160801b90910460ff161515608082015286518790859081106118ad576118ad6121f0565b602002602001018190525082806118c390612206565b9350505b506001016117df565b50505050919050565b6000805160206122598339815191526118f181611a5e565b6001600160a01b0382166119185760405163e6c4247b60e01b815260040160405180910390fd5b6003546040516001600160a01b038085169216907f4ab5be82436d353e61ca18726e984e561f5c1cc7c6d38b29d2553c790434705a90600090a350600380546001600160a01b0319166001600160a01b0392909216919091179055565b600280540361199757604051633ee5aeb560e01b815260040160405180910390fd5b60028055565b60015460ff16156119c15760405163d93c066560e01b815260040160405180910390fd5b565b6000816001600160401b03166000036119de57506000919050565b6004546001600160401b031615801590611a0657506004546001600160401b03908116908316115b15611a2457604051634a94fa8360e11b815260040160405180910390fd5b60008242019050426001600160401b0316816001600160401b0316101561062257604051634a94fa8360e11b815260040160405180910390fd5b610b448133611dae565b6000611a748383611089565b611af2576000838152602081815260408083206001600160a01b03861684529091529020805460ff19166001179055611aaa3390565b6001600160a01b0316826001600160a01b0316847f2f8788117e7eff1d82e926ec794901d17c78024a50270940304540a733656f0d60405160405180910390a4506001610622565b506000610622565b6000611b068383611089565b15611af2576000838152602081815260408083206001600160a01b0386168085529252808320805460ff1916905551339286917ff6391f5c32d9c69d2a47ea670b442974b53935d1edc7fd64eb21e047a839171b9190a4506001610622565b611b6d611de7565b6001805460ff191690557f5db9ee0a495bf2e6ff9c91a7834c1ba4fdd244a5e8aa4e537bd38aeae4b073aa335b6040516001600160a01b03909116815260200160405180910390a1565b80600003611bcf573415610b4457610b443334611c89565b80341015611bf05760405163cd1c886760e01b815260040160405180910390fd5b6000611bfc82346120bf565b90508015611472576114723382611c89565b600354600090600160a01b90046001600160601b03161580611c2e575081155b15611c3b57506000919050565b60035461271090611c5c90600160a01b90046001600160601b03168461221f565b611c669190612236565b90508015611c8457600354611c84906001600160a01b031682611c89565b919050565b80600003611c95575050565b6000826001600160a01b03168260405160006040518083038185875af1925050503d8060008114611ce2576040519150601f19603f3d011682016040523d82523d6000602084013e611ce7565b606091505b50509050806109f457604051633d2cec6f60e21b815260040160405180910390fd5b611d1161199d565b6001805460ff1916811790557f62e78cea01bee320cd4e420270b5ea74000d11b0c9f74754ebdbfc544b05a25833611b9a565b6002810154600090600160801b900460ff16611d6257506000919050565b6002820154600160401b90046001600160401b031615801590611d995750600282015442600160401b9091046001600160401b0316105b15611da657506000919050565b506001919050565b611db88282611089565b6114725760405163e2517d3f60e01b81526001600160a01b0382166004820152602481018390526044016107ea565b60015460ff166119c157604051638dfc202b60e01b815260040160405180910390fd5b600060208284031215611e1c57600080fd5b81356001600160e01b031981168114611e3457600080fd5b9392505050565b6001600160401b0381168114610b4457600080fd5b600080600060608486031215611e6557600080fd5b83359250602084013591506040840135611e7e81611e3b565b809150509250925092565b600060208284031215611e9b57600080fd5b5035919050565b6001600160a01b0381168114610b4457600080fd5b60008060408385031215611eca57600080fd5b823591506020830135611edc81611ea2565b809150509250929050565b600060208284031215611ef957600080fd5b8135611e3481611e3b565b600060208284031215611f1657600080fd5b81356001600160601b0381168114611e3457600080fd5b600080600060608486031215611f4257600080fd5b833592506020840135611f5481611ea2565b929592945050506040919091013590565b80516001600160a01b03168252602080820151908301526040808201516001600160401b0390811691840191909152606080830151909116908301526080908101511515910152565b60a081016106228284611f65565b60008060408385031215611fcf57600080fd5b50508035926020909101359150565b6020808252825182820181905260009190848201906040850190845b818110156120205761200d838551611f65565b9284019260a09290920191600101611ffa565b50909695505050505050565b60006020828403121561203e57600080fd5b8135611e3481611ea2565b60006020828403121561205b57600080fd5b5051919050565b60008060006060848603121561207757600080fd5b8351801515811461208757600080fd5b602085015190935061209881611e3b565b6040850151909250611e7e81611e3b565b634e487b7160e01b600052601160045260246000fd5b81810381811115610622576106226120a9565b634e487b7160e01b600052604160045260246000fd5b600060a082840312156120fa57600080fd5b60405160a081018181106001600160401b038211171561212a57634e487b7160e01b600052604160045260246000fd5b60405282518152602083015161213f81611ea2565b6020820152604083015161215281611ea2565b6040820152606083015161216581611e3b565b6060820152608083015161217881611e3b565b60808201529392505050565b60006040828403121561219657600080fd5b604051604081018181106001600160401b03821117156121c657634e487b7160e01b600052604160045260246000fd5b60405282516121d481611e3b565b815260208301516121e481611e3b565b60208201529392505050565b634e487b7160e01b600052603260045260246000fd5b600060018201612218576122186120a9565b5060010190565b8082028115828204841417610622576106226120a9565b60008261225357634e487b7160e01b600052601260045260246000fd5b50049056fe241ecf16d79d0f8dbfb92cbc07fe17840425976cf0667f022fe9877caa831b08a2646970667358221220e529b4013e676f9269bd38633f54d0b30d835dcb9f80392628c235a291dff89464736f6c63430008190033",
  "linkReferences": {},
  "deployedLinkReferences": {}
}