{
  "_format": "hh-sol-artifact-1",
  "contractName": "SplitPayout",
  "sourceName": "contracts/helpers/SplitPayout.sol",
  "abi": [
    {
      "inputs": [
        {
          "internalType": "address",
          "name": "membership_",
          "type": "address"
        },
        {
          "internalType": "address",
          "name": "marketplace_",
          "type": "address"
        },
        {
          "internalType": "address[]",
          "name": "_recipients",
          "type": "address[]"
        },
        {
          "internalType": "uint32[]",
          "name": "_sharesBps",
          "type": "uint32[]"
        }
      ],
      "stateMutability": "nonpayable",
      "type": "constructor"
    },
    {
      "inputs": [],
      "name": "InvalidRecipients",
      "type": "error"
    },
    {
      "inputs": [],
      "name": "InvalidShares",
      "type": "error"
    },
    {
      "inputs": [],
      "name": "NotRecipient",
      "type": "error"
    },
    {
      "inputs": [],
      "name": "ReentrancyGuardReentrantCall",
      "type": "error"
    },
    {
      "inputs": [],
      "name": "TransferFailed",
      "type": "error"
    },
    {
      "inputs": [],
      "name": "ZeroAddressRecipient",
      "type": "error"
    },
    {
      "inputs": [],
      "name": "ZeroPayment",
      "type": "error"
    },
    {
      "anonymous": false,
      "inputs": [
        {
          "indexed": true,
          "internalType": "address",
          "name": "payer",
          "type": "address"
        },
        {
          "indexed": false,
          "internalType": "uint256",
          "name": "amount",
          "type": "uint256"
        }
      ],
      "name": "PaymentReceived",
      "type": "event"
    },
    {
      "anonymous": false,
      "inputs": [
        {
          "indexed": true,
          "internalType": "address",
          "name": "to",
          "type": "address"
        },
        {
          "indexed": false,
          "internalType": "uint256",
          "name": "amount",
          "type": "uint256"
        }
      ],
      "name": "PaymentReleased",
      "type": "event"
    },
    {
      "inputs": [],
      "name": "TOTAL_BPS",
      "outputs": [
        {
          "internalType": "uint32",
          "name": "",
          "type": "uint32"
        }
      ],
      "stateMutability": "view",
      "type": "function"
    },
    {
      "inputs": [],
      "name": "marketplace",
      "outputs": [
        {
          "internalType": "address",
          "name": "",
          "type": "address"
        }
      ],
      "stateMutability": "view",
      "type": "function"
    },
    {
      "inputs": [],
      "name": "membership",
      "outputs": [
        {
          "internalType": "address",
          "name": "",
          "type": "address"
        }
      ],
      "stateMutability": "view",
      "type": "function"
    },
    {
      "inputs": [
        {
          "internalType": "address",
          "name": "account",
          "type": "address"
        }
      ],
      "name": "pending",
      "outputs": [
        {
          "internalType": "uint256",
          "name": "",
          "type": "uint256"
        }
      ],
      "stateMutability": "view",
      "type": "function"
    },
    {
      "inputs": [],
      "name": "recipientCount",
      "outputs": [
        {
          "internalType": "uint256",
          "name": "",
          "type": "uint256"
        }
      ],
      "stateMutability": "view",
      "type": "function"
    },
    {
      "inputs": [
        {
          "internalType": "uint256",
          "name": "",
          "type": "uint256"
        }
      ],
      "name": "recipients",
      "outputs": [
        {
          "internalType": "address",
          "name": "",
          "type": "address"
        }
      ],
      "stateMutability": "view",
      "type": "function"
    },
    {
      "inputs": [
        {
          "internalType": "address",
          "name": "payer",
          "type": "address"
        }
      ],
      "name": "recordPayment",
      "outputs": [],
      "stateMutability": "payable",
      "type": "function"
    },
    {
      "inputs": [
        {
          "internalType": "address",
          "name": "account",
          "type": "address"
        }
      ],
      "name": "release",
      "outputs": [],
      "stateMutability": "nonpayable",
      "type": "function"
    },
    {
      "inputs": [
        {
          "internalType": "address",
          "name": "",
          "type": "address"
        }
      ],
      "name": "released",
      "outputs": [
        {
          "internalType": "uint256",
          "name": "",
          "type": "uint256"
        }
      ],
      "stateMutability": "view",
      "type": "function"
    },
    {
      "inputs": [
        {
          "internalType": "uint256",
          "name": "",
          "type": "uint256"
        }
      ],
      "name": "sharesBps",
      "outputs": [
        {
          "internalType": "uint32",
          "name": "",
          "type": "uint32"
        }
      ],
      "stateMutability": "view",
      "type": "function"
    },
    {
      "inputs": [],
      "name": "totalReceived",
      "outputs": [
        {
          "internalType": "uint256",
          "name": "",
          "type": "uint256"
        }
      ],
      "stateMutability": "view",
      "type": "function"
    },
    {
      "inputs": [],
      "name": "totalReleased",
      "outputs": [
        {
          "internalType": "uint256",
          "name": "",
          "type": "uint256"
        }
      ],
      "stateMutability": "view",
      "type": "function"
    },
    {
      "stateMutability": "payable",
      "type": "receive"
    }
  ],
  "bytecode": "0x60c060405234801561001057600080fd5b50604051610da5380380610da583398101604081905261002f91610430565b60016000556001600160a01b03841661008f5760405162461bcd60e51b815260206004820152601760248201527f4d656d626572736869702061646472657373207a65726f00000000000000000060448201526064015b60405180910390fd5b6001600160a01b0383166100e55760405162461bcd60e51b815260206004820152601860248201527f4d61726b6574706c6163652061646472657373207a65726f00000000000000006044820152606401610086565b815115806100f557508051825114155b1561011357604051635d5eb16d60e11b815260040160405180910390fd5b6000805b83518110156101a15760006001600160a01b031684828151811061013d5761013d610514565b60200260200101516001600160a01b03160361016c576040516308c9926560e31b815260040160405180910390fd5b82818151811061017e5761017e610514565b602002602001015163ffffffff1682610197919061052a565b9150600101610117565b5061271081146101c457604051636edcc52360e01b815260040160405180910390fd5b6001600160a01b03808616608052841660a05282516101ea906003906020860190610209565b5081516101fe90600490602085019061026e565b505050505050610551565b82805482825590600052602060002090810192821561025e579160200282015b8281111561025e57825182546001600160a01b0319166001600160a01b03909116178255602090920191600190910190610229565b5061026a929150610314565b5090565b8280548282559060005260206000209060070160089004810192821561025e5791602002820160005b838211156102db57835183826101000a81548163ffffffff021916908363ffffffff1602179055509260200192600401602081600301049283019260010302610297565b801561030b5782816101000a81549063ffffffff02191690556004016020816003010492830192600103026102db565b505061026a9291505b5b8082111561026a5760008155600101610315565b80516001600160a01b038116811461034057600080fd5b919050565b634e487b7160e01b600052604160045260246000fd5b604051601f8201601f191681016001600160401b038111828210171561038357610383610345565b604052919050565b60006001600160401b038211156103a4576103a4610345565b5060051b60200190565b600082601f8301126103bf57600080fd5b815160206103d46103cf8361038b565b61035b565b8083825260208201915060208460051b8701019350868411156103f657600080fd5b602086015b8481101561042557805163ffffffff811681146104185760008081fd5b83529183019183016103fb565b509695505050505050565b6000806000806080858703121561044657600080fd5b61044f85610329565b9350602061045e818701610329565b60408701519094506001600160401b038082111561047b57600080fd5b818801915088601f83011261048f57600080fd5b815161049d6103cf8261038b565b81815260059190911b8301840190848101908b8311156104bc57600080fd5b938501935b828510156104e1576104d285610329565b825293850193908501906104c1565b60608b015190975094505050808311156104fa57600080fd5b5050610508878288016103ae565b91505092959194509250565b634e487b7160e01b600052603260045260246000fd5b8082018082111561054b57634e487b7160e01b600052601160045260246000fd5b92915050565b60805160a0516108216105846000396000818161025101526103360152600081816101ef015261030401526108216000f3fe6080604052600436106100ab5760003560e01c8063a2bf68b911610064578063a2bf68b9146101dd578063a3c2c46214610229578063abc8c7af1461023f578063d1bc76a114610273578063d3cd52bc14610293578063e33b7de3146102a957600080fd5b80630750986b14610102578063078d4c2b1461013c578063191655871461015157806322eabb8e146101715780635eebea20146101905780639852595c146101b057600080fd5b366100fd5760405162461bcd60e51b815260206004820152601b60248201527f446972656374207061796d656e7473206e6f7420616c6c6f776564000000000060448201526064015b60405180910390fd5b600080fd5b34801561010e57600080fd5b5061012261011d366004610711565b6102bf565b60405163ffffffff90911681526020015b60405180910390f35b61014f61014a36600461072a565b6102f9565b005b34801561015d57600080fd5b5061014f61016c36600461072a565b61041d565b34801561017d57600080fd5b506003545b604051908152602001610133565b34801561019c57600080fd5b506101826101ab36600461072a565b6105ab565b3480156101bc57600080fd5b506101826101cb36600461072a565b60056020526000908152604090205481565b3480156101e957600080fd5b506102117f000000000000000000000000000000000000000000000000000000000000000081565b6040516001600160a01b039091168152602001610133565b34801561023557600080fd5b5061018260015481565b34801561024b57600080fd5b506102117f000000000000000000000000000000000000000000000000000000000000000081565b34801561027f57600080fd5b5061021161028e366004610711565b610660565b34801561029f57600080fd5b5061012261271081565b3480156102b557600080fd5b5061018260025481565b600481815481106102cf57600080fd5b9060005260206000209060089182820401919006600402915054906101000a900463ffffffff1681565b336001600160a01b037f00000000000000000000000000000000000000000000000000000000000000001614806103585750336001600160a01b037f000000000000000000000000000000000000000000000000000000000000000016145b6103a45760405162461bcd60e51b815260206004820152601e60248201527f4f6e6c79206d656d62657273686970206f72206d61726b6574706c616365000060448201526064016100f4565b346000036103c5576040516311e51d5160e31b815260040160405180910390fd5b34600160008282546103d79190610770565b90915550506040513481526001600160a01b038216907f6ef95f06320e7a25a04a175ca677b7052bdd97131872c2192525a629f51be7709060200160405180910390a250565b61042561068a565b600019610431826106b4565b0361044f5760405163586d335760e01b815260040160405180910390fd5b600061045a826105ab565b9050600081116104a15760405162461bcd60e51b81526020600482015260126024820152714e6f7468696e6720746f2072656c6561736560701b60448201526064016100f4565b6001600160a01b038216600090815260056020526040812080548392906104c9908490610770565b9250508190555080600260008282546104e29190610770565b90915550506040516000906001600160a01b0384169083908381818185875af1925050503d8060008114610532576040519150601f19603f3d011682016040523d82523d6000602084013e610537565b606091505b5050905080610559576040516312171d8360e31b815260040160405180910390fd5b826001600160a01b03167fdf20fd1e76bc69d672e4814fafb2c449bba3a5369d8359adf9e05e6fde87b0568360405161059491815260200190565b60405180910390a250506105a86001600055565b50565b6000806105b7836106b4565b905060001981036105cb5750600092915050565b6000600482815481106105e0576105e0610789565b90600052602060002090600891828204019190066004029054906101000a900463ffffffff1663ffffffff169050600061271063ffffffff1682600154610627919061079f565b61063191906107b6565b6001600160a01b03861660009081526005602052604090205490915061065790826107d8565b95945050505050565b6003818154811061067057600080fd5b6000918252602090912001546001600160a01b0316905081565b6002600054036106ad57604051633ee5aeb560e01b815260040160405180910390fd5b6002600055565b6000805b60035481101561070757826001600160a01b0316600382815481106106df576106df610789565b6000918252602090912001546001600160a01b0316036106ff5792915050565b6001016106b8565b5060001992915050565b60006020828403121561072357600080fd5b5035919050565b60006020828403121561073c57600080fd5b81356001600160a01b038116811461075357600080fd5b9392505050565b634e487b7160e01b600052601160045260246000fd5b808201808211156107835761078361075a565b92915050565b634e487b7160e01b600052603260045260246000fd5b80820281158282048414176107835761078361075a565b6000826107d357634e487b7160e01b600052601260045260246000fd5b500490565b818103818111156107835761078361075a56fea2646970667358221220cf9bba077c1561ce41adaa63bbaecd384dfa579d60bdfc62ab1694224b66eeea64736f6c63430008190033",
  "linkReferences": {},
  "deployedLinkReferences": {}
}